:100000000C9472000C9493000C9493000C94930045
:100010000C9493000C9493000C9493000C94930014
:100020000C9493000C9493000C9493000C94930004
:100030000C9493000C9493000C9493000C949300F4
:100040000C9493000C9493000C9493000C949300E4
:100050000C9493000C9425030C9493000C9493003F
:100060000C9493000C9493000C9493000C949300C4
:100070000C9493000C9493000C9493000C949300B4
:100080000C9493000C9493000C9493000C949300A4
:100090000C9493000C9493000C9493000C94930094
:1000A0000C9493000C9493000C9493000C94930084
:1000B0000C9493000C9493000C9493000C94930074
:1000C0000C9493000C9493000C9493000C94930064
:1000D0000C9493000C9493000C9493000C94930054
:1000E0000C94930011241FBECFEFD1E2DEBFCDBF31
:1000F00000E00CBF13E0A0E0B2E0E6EFF7E000E0C4
:100100000BBF02C007900D92AE3AB107D9F723E0BA
:10011000AEEAB3E001C01D92AB3DB207E1F70E9429
:10012000C3010C94F9030C940000E091D903EF5F34
:10013000EF70E093D903F0E0E853FC4F808308951B
:100140009091C00095FFFCCF8093C6000895CF9397
:10015000DF93EC018991811103C0DF91CF91089564
:100160000E94A000F7CFCF93C82F80E30E94A00089
:1001700087E5CA3008F480E38C0F0E94A000CF917D
:100180000895CF93DF93C82FD62F88E20E94A00056
:100190008BE2D11101C08DE20E94A0008C2F8F70E4
:1001A0000E94B3008AE30E94A0008C2F82958F707A
:1001B0000E94B30089E20E94A000C0FF21C0449ABF
:1001C000C1FF20C0A29AC2FF1FC0409AC3FF1EC039
:1001D000459AC4FF1DC0419AC5FF1CC0429AC6FF84
:1001E0001BC0479ADD23D1F0439A5F9A85E0982F90
:1001F0009A95F1F75F988A95F1F7DF91CF9108957D
:100200004498DECFA298DFCF4098E0CF4598E1CF69
:100210004198E2CF4298E3CF4798E4CF4398E5CFA7
:10022000DF92EF92FF920F931F93CF93DF938C0196
:10023000C091DA038C2F8170D82EC0FF04C060E01B
:100240008CE30E94C100EC2FE270EE2EC1FF04C0CF
:1002500060E08CE70E94C100F801C1918F01C111DB
:1002600011C0DD2021F061E08CE30E94C100EE208E
:1002700021F061E08CE70E94C100CDB7DEB7E7E076
:100280000C94E903CD30F9F080EE8C0F803420F728
:100290008C2F0E94A000EC2FF0E0E15BFC4FF0807F
:1002A000FDE7FF16C9F261E08F2D0E94C100C0E09A
:1002B000DAEFCE010197F1F760E08F2D0E94C100C7
:1002C0002197F1F7C9CF8DE00E94A0008AE7F82EB0
:1002D000EACFFF920F931F93CF93DF93182FF62E41
:1002E000042FC22FD091DA03D430D9F1A0F4D13049
:1002F000C8F4C11105C060E0812F8F770E94C10052
:1003000017FF04C06C2F8CE30E94C100CC2329F09E
:1003100061E0812F22C0D83060F7CDB7DEB7E5E0CD
:100320000C94EB03211105C060E08F2D8F770E94A4
:10033000C100F7FE0EC0D0FF05C061E06C278CE362
:100340000E94C100D1FF05C061E06C278CE70E94CC
:10035000C10061E08F2DCC2301F38F770E94C10093
:10036000DCCF211105C060E0842F8F770E94C1008F
:1003700007FF04C06C2F8CE30E94C10061E0802F56
:10038000CC2359F2EACF86E08093C2001092C500D8
:1003900081E28093C40092E09093C00088E1809352
:1003A000C10094BD85E085BD2FE027BD90936E0010
:1003B0009093C7039FEF9093C60324EF31E03093EF
:1003C000C3032093C2032091C2033091C30330932F
:1003D000C1032093C00320E430E03093C503209391
:1003E000C40392B95F983E9A3C9A9A9A389A3D9A79
:1003F000399A3A9A3F9A3B9A579A469A8A95F1F7D0
:10040000469878949091D9038091D8039817D1F3A6
:100410009091D9038091D8039817D1F3E091D80334
:10042000EF5FEF70E093D803F0E0E853FC4FD0812A
:100430008D2F8F77CD2FC095CC1FCC27CC1F80322E
:1004400009F4BDC0C0F5863109F493C088F4873043
:1004500009F474C08F3009F4D8C0811111C08DE146
:1004600092E00E94A7002C2F41E76DE781E720C0B2
:100470008E3109F492C008F0B3C0873109F4D5C0B9
:10048000EAE7F2E030E020E09181891346C085E0A0
:10049000829F8001839F100D112406581D4FF80183
:1004A00080810E94A0002C2FF80144816381828109
:1004B0000E946901A7CF803309F464C0B0F4883288
:1004C00009F489C08F3209F442C08732C9F689E540
:1004D00092E00E94A700D7FD95CF8091DA03837048
:1004E00009F490C08CE592E087C08733C9F18F335F
:1004F000E1F0813329F680E392E00E94A7002C2FDF
:100500004CE36CE38CE30E9469018091DA03D7FD30
:1005100042C081608093DA0375CF2F5F3F4F3596DD
:100520002133310509F0B0CF6DCF80E092E00E9419
:10053000A7002C2F4DE762E682E6BACF87E092E073
:100540000E94A7002C2F4DE76AE78AE7B1CF8EE023
:1005500092E00E94A7002C2F4DE761E681E6A8CF2C
:1005600083E192E00E94A7002C2F4DE762E482E431
:100570009FCF88E192E00E94A7002C2F4DE761E415
:1005800081E496CF87E292E00E94A7002C2F4DE7EE
:100590006DE58DE58DCF8E7FBDCF87E392E00E9424
:1005A000A7002C2F4CE76CE78CE70E946901809133
:1005B000DA03D7FD02C08260ADCF8D7FABCF8EE373
:1005C00092E00E94A7008091DA03D7FD02C0846008
:1005D000A1CF8B7F9FCF82E492E00E94A70012CF31
:1005E00087E492E00E94A700D7FD0CCF8091DA0348
:1005F000837029F08AE492E00E94100103CF8EE418
:1006000092E0FACF80E692E0F7CF84E692E00E9493
:10061000A700D7FDF7CE8091DA03837019F087E643
:1006200092E0EACF8BE692E0E7CF8FE692E00E947D
:10063000A700D7FDE7CE8091DA03837019F082E737
:1006400092E0DACF86E792E0D7CF1F920F920FB6F3
:100650000F9211240BB60F92CF92DF92EF92FF927E
:100660000F931F932F933F934F935F936F937F93BA
:100670008F939F93AF93BF93CF93DF93EF93FF93AA
:100680008091C703813009F47DC08091C6038F3FFC
:10069000D1F02091C0033091C10321503109309332
:1006A000C1032093C0032091C0033091C103232BC9
:1006B00051F42091C4033091C5033093C1032093BA
:1006C000C0030E9495000091BF03D091BE038D2FFF
:1006D00090E09C0122553C4F7901F901C0810C1733
:1006E00081F0DD2EDD0CDD0CDD0C102F10951C23B0
:1006F000CD2C111136C0C095C023C1113BC0F701EC
:10070000008381E090E00D2E01C0880F0A94EAF783
:1007100080930A01809580930B01DF5FD83009F444
:10072000D0E0D093BE0381E08093C703FF91EF91A7
:10073000DF91CF91BF91AF919F918F917F916F91F9
:100740005F914F913F912F911F910F91FF90EF90EB
:10075000DF90CF900F900BBE0F900FBE0F901F90A9
:10076000189510FF04C08C2D80680E949500169586
:10077000C394BFCFC0FF03C08D2D0E949500C695C6
:10078000D394BBCF80B180958093BF0382E0CCCF60
:10079000F999FECF92BD81BDF89A992780B5089549
:1007A000262FF999FECF1FBA92BD81BD20BD0FB68D
:1007B000F894FA9AF99A0FBE019608952A88398812
:1007C00048885F846E847D848C849B84AA84B984E9
:1007D000C884DF80EE80FD800C811B81AA81B981F5
:1007E000CE0FD11D0FB6F894DEBF0FBECDBFED0109
:0607F0000895F894FFCF0C
:1007F60044454C4554450052455455524E004353CA
:100806005254004353444E00484F4D45004C454614
:10081600544152524F570052554E2F53544F500089
:100826004C534849465400525348494654004342A3
:100836004D004354524C0046310046320D004449A7
:10084600524543544F52590D0046330046340D006D
:1008560046330D0046350046360D0046350D00463A
:10086600370046380D0046370D0020181D1D7D2A1D
:1008760006692CF12B3D6B2D812C350B8D7D2D15AD
:100886006C7D7D2E1D4DDC7D2F3664DB7D30144C5A
:100896004CBD31384AB17D32104BB27D33396AA135
:1008A6007D341148A27D353A49917D361268817DA5
:1008B600373B43927D381344D17D393C63D23D3A70
:1008C6002559AD7D3B2E5A9C7D3D266D1C82400DE3
:1008D6002C59A241293838CC421B1A1ADB431A2A52
:1008E6002A8D442A28288B45092323CA46222929EA
:1008F600DA472B18189148231919C849040404B279
:100906004A2C0808C94B240909B14C2D5858E84D02
:100916001C0A0A924E341B1BE94F0C5353E3500535
:100926005454E451083333EB52022424CB53213977
:1009360039CD540A1313A1550B0303C456332B2B7D
:10094600DC57013434EA58323B3BED59031414C3E7
:100956005A193A3AEC5C3E0252D15E0E73737D1D13
:10096600313221221101125152696B0B6C4D644CCC
:100976004A4B6A484968434463595A0D6D5C5B2C7F
:10098600381A2A2823291819040809580A1B535407
:0E09960033243913032B343B143A2D7D1C738C
:00000001FF
