:100000000C94F2000C9413010C9413010C94130142
:100010000C9413010C9413010C9413010C94130110
:100020000C9413010C9413010C9413010C94130100
:100030000C9413010C9413010C9413010C941301F0
:100040000C9413010C9413010C9413010C941301E0
:100050000C9413010C940A030C9413010C941301D7
:100060000C9413010C9413010C9413010C941301C0
:100070000C9413010C9413010C9413010C941301B0
:100080000C9413010C9413010C9413010C941301A0
:100090000C9413010C9413010C9413010C94130190
:1000A0000C9413010C9413010C9413010C94130180
:1000B0000C9413010C9413010C9413010C94130170
:1000C0000C9413010C9413010C9413010C94130160
:1000D0000C9413010C9413010C9413010C94130150
:1000E0000C9413010C94D9020C9409020C94DB02B9
:1000F0000C944B020C9494020C94DE020C941E029D
:100100000C94AC020C947C020C9410020C947E02B1
:100110000C94A0020C94F1020C9468020C945C0202
:100120000C94A6020C94A8020C9426020C9456027D
:100130000C9492020C94C0020C94AA020C94030238
:100140000C9496020C94BA020C9486020C94C2028F
:100150000C94C7020C9462020C948C020C946E02F4
:100160000C947A020C9417020C94C5020C94B202FF
:100170000C9472020C9488020C9434020C942002A9
:100180000C949C020C949A020C948A020C94CC025B
:100190000C945F020C948E020C949E020C945302F9
:1001A0000C9450020C9490020C94D6020C945902B8
:1001B0000C9478020C9470020C9480020C94D0027F
:1001C0000C94B8020C94C9020C943A020C94CE021E
:1001D0000C9498020C9407030C9441020C942D0289
:1001E0000C94000311241FBECFEFD1E2DEBFCDBFC0
:1001F00000E00CBF12E0A0E0B2E0E2EAF7E000E0CD
:100200000BBF02C007900D92AA35B107D9F722E0C3
:10021000AAE5B2E001C01D92A738B207E1F70E943B
:1002200062010C94CF030C940000862B85B95E9A72
:100230005E980895CF93C62F9091860293704423C1
:10024000A1F061E0992369F0C7FF08C060E080E396
:100250000E94150160E080E30E94150161E08C2F8F
:100260008F770E941501CF91089560E09923C9F31B
:10027000C7FF08C061E080E30E94150161E080E3F0
:100280000E94150160E0EBCFE0918502EF5FEF7017
:10029000E0938502F0E0EC58FD4F80830895909143
:1002A000C00095FFFCCF8093C6000895CF93DF93E5
:1002B000EC018991811103C0DF91CF9108950E94D3
:1002C0004F01F7CF86E08093C2001092C50080E115
:1002D0008093C40088E18093C10082E084BD95E0F2
:1002E00095BD9FE097BD80936E00809373028FEF62
:1002F0008093720224EF31E030936F0220936E02FC
:1003000020916E0230916F0230936D0220936C0247
:1003100020E430E0309371022093700282B95E983D
:10032000569A84B9C0E88C2F8195880F60E08E5F63
:100330000E941501C150B9F778949091850280917F
:1003400084029817D1F390918502809184029817C6
:10035000D1F3E0918402EF5FEF70E0938402F0E06C
:10036000EC58FD4FD081CD2FC095CC1FCC27CC1F92
:10037000ED2FEF77E03408F7F0E08827ED53FE4FDC
:100380008F4F0C94C703D60262027802880294024F
:10039000A602C5024B02AA027202860290029C02C9
:1003A000BA02CE025C020902170220022D023A02B2
:1003B000AC02C9025302D9026E027C028C0298027E
:1003C000B202F1025602070370027E028E029A0206
:1003D000B802CC025902000368027A028A0296022D
:1003E000A802C7025002DB02DE02800292029E02D5
:1003F000C002D0025F02030210021E022602340273
:10040000A002C202410281E30E944F014C2F60E032
:100410000CC082E30E944F014C2F62E880E138C09B
:1004200083E30E944F014C2F60E880E031C084E3F9
:100430000E944F014C2F62E882E32AC085E3F1CF8E
:1004400086E30E944F014C2F60E8F6CF87E30E94BD
:100450004F014C2F62E882E21BC088E30E944F01EB
:100460004C2F60E882E114C089E30E944F014C2FB9
:1004700060E8F1CF80E30E944F014C2F60E380E3FE
:1004800007C080E092E00E9456014C2F62E082E0BB
:100490000E941A0152CF87E092E00E945601B6CF27
:1004A0008EE092E0FACF83E192E0F7CF86E192E02E
:1004B000F4CF89E192E0F1CF8CE192E0EECF8FE1D1
:1004C00092E0E1CF87E50E944F014C2F62E1CACF55
:1004D00081E40E944F014C2F62E3AECF8AE594CFB6
:1004E00083E592CF85E40E944F014C2F62E2B3CFA7
:1004F00082E5E9CF84E4EDCF83E486CF86E484CF40
:1005000088E50E944F014C2F60E188CF84E5EBCF56
:1005100089E5D9CF87E4DDCF82E476CF88E474CF54
:1005200085E5E1CF86E5EDCF89E4CDCF8AE4D1CF73
:100530008DE46ACF8BE468CF8FE4D5CF8EE4E1CF32
:100540008BE20E944F014C2F60E868CF80E5BBCF63
:100550008CE4BFCF81E5C7CF8DE20E944F014C2FC5
:1005600060E08DCF8EE20E944F014C2F60EB5DCF9B
:100570008AE357CF80E40E944F014C2F60E87FCF81
:100580008CE2DFCF84E292E088CF8AE24ACF8BE32D
:10059000EACF8AE292E081CF8DE336CF8EE5A3CF1A
:1005A0008FE20E944F014C2F60E95CCF8FE292E016
:1005B00074CF80E229CF89E392E06FCF82E492E0AA
:1005C0000E9456014C2F60E380E30E941A01809143
:1005D0008602D7FD04C0816080938602AECE8E7FF6
:1005E000FBCF89E492E00E9456014C2F60E380E348
:1005F0000E941A0180918602D7FD07C08260ECCF6D
:1006000080E592E00E945601F5CF8D7FE5CF85E52C
:1006100092E043CF1F920F920FB60F9211240BB6A8
:100620000F92CF92DF92EF92FF920F931F932F932F
:100630003F934F935F936F937F938F939F93AF936A
:10064000BF93CF93DF93EF93FF9380917302813039
:1006500009F481C0809172028F3FD1F020916C0229
:1006600030916D022150310930936D0220936C025C
:1006700020916C0230916D02232B51F42091700275
:100680003091710230936D0220936C020E944401FC
:1006900000916B02D0916A028D2F90E09C01265A46
:1006A0003D4F7901F901C0810C1781F0DD2EDD0C81
:1006B000DD0CDD0C102F10951C23CD2C11113AC030
:1006C000C095C023C1113FC0F701008381E090E0D5
:1006D0000D2E01C0880F0A94EAF780930A018095D5
:1006E00080930B01DF5FD83009F4D0E0D0936A0229
:1006F00081E080937302279A85B1805885B9FF9174
:10070000EF91DF91CF91BF91AF919F918F917F91A9
:100710006F915F914F913F912F911F910F91FF909A
:10072000EF90DF90CF900F900BBE0F900FBE0F9009
:100730001F90189510FF04C08C2D80680E94440102
:100740001695C394BBCFC0FF03C08D2D0E944401FA
:10075000C695D394B7CF80B1809580936B0282E029
:10076000C8CFF999FECF92BD81BDF89A992780B57F
:100770000895262FF999FECF1FBA92BD81BD20BDE5
:100780000FB6F894FA9AF99A0FBE01960895EE0FF3
:10079000FF1F881F8BBF0790F691E02D1994F894E6
:0207A000FFCF89
:1007A20044454C4554450052455455524E0043531E
:1007B2005254004637004631004633004635004366
:1007C20053444E00504F554E4400484F4D45004251
:1007D20041434B4152524F570052554E2F53544FA3
:1007E20050004C534849465400525348494654001D
:0A07F2004354524C0043424D0000F6
:00000001FF
