:100000000C9488000C94A9000C94A9000C94A900ED
:100010000C94A9000C94A9000C94A9000C94A900BC
:100020000C94A9000C94A9000C94A9000C94A900AC
:100030000C94A9000C94A9000C94A9000C94A9009C
:100040000C94A9000C94A9000C94A9000C94A9008C
:100050000C94A9000C94D3050C94A9000C94A9004D
:100060000C94A9000C94A9000C94A9000C94A9006C
:100070000C94A9000C94A9000C94A9000C94A9005C
:100080000C94A9000C94A9000C94A9000C94A9004C
:100090000C94A9000C94A9000C94A9000C94A9003C
:1000A0000C94A9000C94A9000C94A9000C94A9002C
:1000B0000C94A9000C94A9000C94A9000C94A9001C
:1000C0000C94A9000C94A9000C94A9000C94A9000C
:1000D0000C94A9000C94A9000C94A9000C94A900FC
:1000E0000C94A9000C9444050C9473050C948302A1
:1000F0000C9428050C9458050C9478040C94660410
:100100000C9461050C946A050C940D050C944F0534
:1001100011241FBECFEFD1E2DEBFCDBF00E00CBF88
:1001200014E0A0E0B2E0EAE9FDE000E00BBF02C0AD
:1001300007900D92A438B107D9F726E0A4E8B4E0FF
:1001400001C01D92AC3EB207E1F70E94DC030C94A3
:10015000CB060C940000E091AF04EF5FEF70E093EA
:10016000AF04F0E0E256FB4F808308959091C00009
:1001700095FFFCCF8093C6000895CF93DF93EC01E9
:100180008991811103C0DF91CF9108950E94B6003B
:10019000F7CFCF93C82F80E30E94B60087E5CA301F
:1001A00008F480E38C0F0E94B600CF910895CF939E
:1001B000DF939091A9069923D1F0D62FC82F88E21A
:1001C0000E94B6008BE2D11101C08DE20E94B60000
:1001D0008C2F8F700E94C9008AE30E94B6008C2F7A
:1001E00082958F700E94C90089E20E94B600DF915B
:1001F000CF910895CF93DF93C82FD62F0E94D700B9
:10020000C0FF21C0449AC1FF20C0A29AC2FF1FC0F4
:10021000409AC3FF1EC0459AC4FF1DC0419AC5FF46
:100220001CC0429AC6FF1BC0479ADD23D1F0439AF7
:100230005F9A85E0982F9A95F1F75F988A95F1F784
:10024000DF91CF9108954498DECFA298DFCF4098F8
:10025000E0CF4598E1CF4198E2CF4298E3CF47986D
:10026000E4CF4398E5CFCF93DF93C82F8F7D8154A0
:10027000990BD0E04A9720F4D0E8C5FDD0E0CF7DBF
:10028000CD3089F080EE8C0F803450F48C2F0E949A
:10029000B600EC2FF0E0E05DFC4FC081CD3749F4B3
:1002A000DF91CF9108958DE00E94B600D091EA06CB
:1002B000CAE7DD2321F061E08CE30E94FA0061E0EF
:1002C0008C2F0E94FA0080E09AEF0197F1F760E02E
:1002D0008C2F0E94FA00DD2321F060E08CE30E9465
:1002E000FA0080E09AEF0197F1F7DACFFF920F93CF
:1002F0001F93CF93DF93EC011091EB06812F817058
:10030000F82E10FF04C060E08CE30E94FA00012F79
:10031000027011FF04C060E08CE70E94FA0089912E
:10032000811111C0FF2021F061E08CE30E94FA00EE
:10033000002321F061E08CE70E94FA00CDB7DEB720
:10034000E5E00C94BD060E943301E9CF2091EA0656
:10035000211107C02091EB06237009F0CB010E9408
:1003600076010895FF920F931F93CF93DF93082F89
:10037000C62FF42ED22F809100028D3739F060E025
:100380008F770E94FA008DE7809300021091EB06B0
:10039000183009F450C0E0F48FEF810F833030F152
:1003A000D11105C060E0802F8F770E94FA0007FF0F
:1003B00006C06D2F8CE30E94FA0000930002DD233B
:1003C00029F061E0802F8F770E94FA00C02F03C0D0
:1003D000CDE71C3028F7CF77137080E009F080E874
:1003E0008C2BCDB7DEB7E5E00C94BD060C2F0F7754
:1003F000D11104C060E0802F0E94FA00C7FF14C032
:1004000010FF05C061E06D278CE30E94FA0011FF28
:1004100005C061E06D278CE70E94FA00C0930002DE
:1004200080E09AEF0197F1F7DD23A9F261E0802FD8
:100430000E94FA00D0CFD11105C060E08F2D8F77D8
:100440000E94FA00F7FE06C06D2F8CE30E94FA00AE
:10045000F0920002DD2329F061E08F2D8F770E945A
:10046000FA00CF2DB8CFCF93C62F803261F120F4A0
:100470008E31B9F0CF910895883289F18133D1F767
:1004800081E092E00E94BD008091EB068E7F8C2B74
:100490008093EB062C2F4CE36CE38CE30E94B201BB
:1004A000E9CF88E092E00E94BD008091EB068D7F4D
:1004B00090E0C11192E0892B8093EB062C2F4CE742
:1004C0006CE78CE7EBCF8FE092E00E94BD0080915B
:1004D000EB06877F98E0C1110CC090E00AC083E171
:1004E00092E00E94BD008091EB068B7F94E0CC23CC
:1004F000A1F3892B8093EB06BDCFB0E0A0E0E3E849
:10050000F2E00C949D06182FC82FCF77D82FD095E6
:10051000DD1FDD27DD1FCF33A9F48091EB068C7042
:100520008C3081F417FD02C08DE74BC088E192E06A
:100530000E94760181E09091EA06911180E080931B
:10054000EA06F2CF6D2F8C2F0E943302D090EB067B
:100550008D2D837020E809F420E02C2B6091B304EA
:100560007091B40490E080E08617970778F1CF315E
:1005700009F4F5C008F09EC0CF3009F408C108F0B6
:1005800088C0CC2309F4D9C0C73009F4BBC0EFE858
:10059000F3E090E080E021812C13ADC025E0289F9E
:1005A0008001299F100D112401571C4FF8018081F3
:1005B0000E94B6002D2FF8014481638182810E9440
:1005C000B201CDB7DEB7E9E00C94B906FC01EB54FB
:1005D000FB4F01813081231709F4E4C0402F50E024
:1005E0004E5F5F4F840F951FBFCF91919D938F5F9B
:1005F0008013FBCF17FD98CF8D2D8170B82ED0FEC4
:1006000004C060E08CE30E94FA00ED2DE270CE2E73
:10061000D1FE04C060E08CE70E94FA0081E0809384
:10062000A906C0E0C01310C01092A906BB2021F09B
:1006300061E08CE30E94FA00CC2009F475CF61E000
:100640008CE70E94FA0070CFF701D1917F011D2F36
:100650001F771D37E1F0D7FF04C061E08CE30E94F3
:10066000FA0061E0812F0E94FA0080E09AEF019782
:10067000F1F760E0812F0E94FA00D7FF04C060E02C
:100680008CE30E94FA0080E09AEF0197F1F7CF5FC8
:10069000C9CFC63109F448C0C73109F078CF80E826
:1006A00092E00E94BD0017FD3FCF63E872E087E84B
:1006B00092E05FC0C03309F449C078F4C73209F44E
:1006C0005BC0CF3209F063CF86E392E00E94BD00A9
:1006D0002D2F4DE761E681E672CFC733E1F0CF33CE
:1006E00009F055CF88E292E00E94BD002D2F4DE722
:1006F00062E682E664CF019635968133910509F072
:100700004ACF12CF8FE292E00E94BD002D2F4DE71D
:100710006AE78AE754CF8BE392E00E94BD002D2F59
:100720004DE762E482E44BCF80E492E00E94BD009A
:100730002D2F4DE761E481E442CF85E492E00E94F1
:10074000BD002D2F41E76DE781E739CF8FE492E0BF
:100750000E94BD002D2F4DE76DE58DE530CF88E57A
:1007600092E00E94BD006BE572E08FE592E017FD1C
:10077000DBCE0E94A601D8CE8AE692E00E94BD00A0
:100780006DE672E081E792E017FFF3CFCDCE85E70B
:1007900092E00E94BD0068E772E08CE792E017FFEC
:1007A000E8CFC2CEFC01E954FB4F8AEAE82E86E08E
:1007B000F82ED70180E01CCF86E08093C200109213
:1007C000C50081E28093C40092E09093C00088E16C
:1007D0008093C10094BD85E085BD2FE027BD909337
:1007E0006E0090939D049FEF90939C0424EF31E062
:1007F000309399042093980420919804309199049F
:10080000309397042093960420E430E030939B04C7
:1008100020939A0492B95F983E9A3C9A9A9A389A91
:100820003D9A399A3A9A3F9A3B9A579A469A8A95AC
:10083000F1F7469878949091AF048091AE049817A0
:10084000D1F39091AF048091AE049817D1F3E09169
:10085000AE04EF5FEF70E093AE04F0E0E256FB4FC2
:10086000D0818091EA06882309F47AC1CD2FCF7711
:100870006D2F6095661F6627661F8C2F0E943302BE
:10088000D7FF36C01091EB06812F8C708C3049F465
:10089000CF3339F48BE892E00E9476011092EA0699
:1008A000CACFE091B204EA3018F5F0E08827E45AA4
:1008B000FB4F8F4F0C948C0666040D0578042805B9
:1008C00044054F05580561056A057305137080E8F6
:1008D00009F480E08C2B8093B104CC3109F497C0EB
:1008E00008F049C0CF3009F476C0C73109F481C09F
:1008F0008091B204823009F09ECFD7FD1DC1809156
:10090000EB06837009F430C1C73009F02DC1109295
:10091000B2044091B1046091B3047091B40430E02A
:1009200020E02617370708F4E4C09091B004A091A6
:10093000B304B091B404FD0132969F01290F311D1B
:10094000253F314098F4AB54BB4F4C9311969C9388
:10095000AAEAB6E0EB54FB4F80E09F01255B3440F0
:100960009813E6C03093B4042093B30488E493E072
:100970000E94760160CFC73201F1CC32B1F0CF31A5
:1009800009F0B6CF82E08093B2041092B0048FEAEF
:1009900092E00E94760182E3111101C081E30E947E
:1009A00033018AE30E943301A3CF83E08093B20432
:1009B0008CE992E00E9476019BCF82E08093B204A2
:1009C0001092B0048FEA92E00E94760184E3111144
:1009D000E6CF83E3E4CF82E08093B2041092B004C8
:1009E0008FEA92E00E94760186E31111D8CF85E369
:1009F000D6CF82E08093B2041092B0048FEA92E0E6
:100A00000E94760188E31111CACF87E3C8CF81E045
:100A10008093B20488ED92E0CDCFC03219F048F453
:100A2000CE3159F488EE92E00E9476011092B20421
:100A30005FCFC832B9F3C133A9F382E08093B20427
:100A40001092B0048D2F0E947D0281EF92E0B2CF10
:100A5000C03161F0C833A9F489E093E00E947601C7
:100A600084E08093B2041092B00442CF8FE093E010
:100A70000E94760184E08093B20481E08093B00408
:100A800037CF85E193E0D0CF8C2F0E947D028FE19C
:100A900093E00E94760185E08093B20429CF8C2FE9
:100AA0000E947D0286E293E00E94760186E0F4CF08
:100AB0008C2F0E947D028DE293E00E94760187E0F8
:100AC000EBCF8C2F0E947D0285E393E00E9476019C
:100AD00088E0E2CF8C2F0E947D028EE393E00E949B
:100AE000760189E0D9CF8C2F0E947D0287E493E0C4
:100AF0009BCFF901EB54FB4F8181908149130BC0CF
:100B000090E09F01255B344089130AC03093B40400
:100B10002093B3040ACF90E00296280F391F01CF2B
:100B2000DF01A80FB11D12962C9121939F5FE9CF91
:100B30002D9121938F5F11CFC03209F47CCE50F4F8
:100B4000CE3109F478CE8D2F0E947D0260E00E94A4
:100B5000D70071CEC83209F46ECEC133A1F76BCE87
:100B60008D2F0E947D0267CEC03209F464CEA8F4B6
:100B7000CE3109F460CE8D2F0E947D02C82F61E036
:100B80000E94D700E091B00481E08E0F8093B00402
:100B9000F0E0E655F94FC0834ECEC83209F44BCE93
:100BA000C13349F748CE1F920F920FB60F9211240E
:100BB0000BB60F92CF92DF92EF92FF920F931F939B
:100BC0002F933F934F935F936F937F938F939F9355
:100BD000AF93BF93CF93DF93EF93FF9380919D04E7
:100BE000813009F47DC080919C048F3FD1F0209129
:100BF0009604309197042150310930939704209343
:100C000096042091960430919704232B51F420915F
:100C10009A0430919B0430939704209396040E9489
:100C2000AB0000919504D09194048D2F90E09C012D
:100C30002C573B4F7901F901C0810C1781F0DD2E53
:100C4000DD0CDD0CDD0C102F10951C23CD2C1111AB
:100C500036C0C095C023C1113BC0F701008381E0BD
:100C600090E00D2E01C0880F0A94EAF780930A01E4
:100C7000809580930B01DF5FD83009F4D0E0D093EA
:100C8000940481E080939D04FF91EF91DF91CF91D7
:100C9000BF91AF919F918F917F916F915F914F9194
:100CA0003F912F911F910F91FF90EF90DF90CF9088
:100CB0000F900BBE0F900FBE0F901F90189510FF56
:100CC00004C08C2D80680E94AB001695C394BFCFE2
:100CD000C0FF03C08D2D0E94AB00C695D394BBCF3F
:100CE00080B180958093950482E0CCCFF999FECFB6
:100CF00092BD81BDF89A992780B50895262FF9995C
:100D0000FECF1FBA92BD81BD20BD0FB6F894FA9AEE
:100D1000F99A0FBE01960895EE0FFF1F881F8BBF33
:100D20000790F691E02D19942F923F924F925F9287
:100D30006F927F928F929F92AF92BF92CF92DF92EB
:100D4000EF92FF920F931F93CF93DF93CDB7DEB750
:100D5000CA1BDB0B0FB6F894DEBF0FBECDBF1994D4
:100D60002A88398848885F846E847D848C849B843B
:100D7000AA84B984C884DF80EE80FD800C811B8149
:100D8000AA81B981CE0FD11D0FB6F894DEBF0FBE78
:0A0D9000CDBFED010895F894FFCFE8
:100D9A007D4C5348494654005253484946540043EF
:100DAA00424D004354524C00636F6E666967206D72
:100DBA006F6465206F6E0A0044454C4554450052E5
:100DCA00455455524E0043535254004353444E0027
:100DDA00484F4D45004C4546544152524F570052D8
:100DEA00554E2F53544F500046310066320D006461
:100DFA0069726563746F72790D0046330066340D4B
:100E0A000066330D0046350066360D0066350D0066
:100E1A0046370066380D0066370D00636F6E6669E7
:100E2A0067206D6F6465206F66660A006D617020C9
:100E3A006A6F79737469636B2E206A6F7923006D08
:100E4A0061702066756E6374696F6E206B657920B8
:100E5A002853482D52455455524E20746F206669C6
:100E6A006E697368292023006D6170207768696351
:100E7A0068206B65793F3A00696E76616C69640D2A
:100E8A0000202853482D52455455524E20746F2045
:100E9A0066696E697368293A00312E75703A0032B4
:100EAA002E75703A002E494E56414C49440D002E7B
:100EBA00646F776E3A002E6C6566743A002E72691A
:100ECA006768743A002E6669726520313A002E66A8
:100EDA0069726520323A002E6D61707065640D008A
:100EEA001D313221221101125152696B0B6C4D6472
:100EFA004C4A4B6A484968434463595A0D6D5C5BD6
:100F0A002C381A2A2823291819040809580A1B53A5
:100F1A005433243913032B343B143A2D7D1C73208C
:100F2A00181D1D7D2A06692CF12B3D6B2D812C3550
:100F3A000B8D7D2D156C1C822E1D4DDC7D2F36648C
:100F4A00DB7D30144C4CBD31384AB17D32104BB286
:100F5A007D33396AA17D341148A27D353A49917DA4
:100F6A00361268817D373B43927D381344D17D39EF
:100F7A003C63D23D3A2559AD7D3B2E5A9C7D3D2698
:100F8A006D7D7D400D2C59A241293838CC421B1A5F
:100F9A001ADB431A2A2A8D442A28288B4509232337
:100FAA00CA46222929DA472B18189148231919C841
:100FBA0049040404B24A2C0808C94B240909B14C53
:100FCA002D5858E84D1C0A0A924E341B1BE94F0C47
:100FDA005353E350055454E451083333EB5202247B
:100FEA0024CB53213939CD540A1313A1550B0303CA
:100FFA00C456332B2BDC57013434EA58323B3BEDD1
:10100A0059031414C35A193A3AEC5C3E0252D15E9F
:04101A000E73737D61
:00000001FF
