:100000000C94F2000C9413010C9413010C94130142
:100010000C9413010C9413010C9413010C94130110
:100020000C9413010C9413010C9413010C94130100
:100030000C9413010C9413010C9413010C941301F0
:100040000C9413010C9413010C9413010C941301E0
:100050000C9413010C94CD040C9413010C94130113
:100060000C9413010C9413010C9413010C941301C0
:100070000C9413010C9413010C9413010C941301B0
:100080000C9413010C9413010C9413010C941301A0
:100090000C9413010C9413010C9413010C94130190
:1000A0000C9413010C9413010C9413010C94130180
:1000B0000C9413010C9413010C9413010C94130170
:1000C0000C9413010C9413010C9413010C94130160
:1000D0000C9413010C9413010C9413010C94130150
:1000E0000C9413010C94F7030C9430040C943F030C
:1000F0000C9420040C94EB020C94D7030C94CF03C3
:100100000C9405030C947F040C9447030C94870310
:100110000C941F030C94AB020C9477030C947F0394
:100120000C94C7030C9449040C94DB020C94FC025D
:100130000C9491040C94C3020C948F030C9441040E
:100140000C940F040C949F030C94A1020C94BD0416
:100150000C9457030C94A4040C94DF030C945104E6
:100160000C949D040C94B3020C94AF030C946204A1
:100170000C94A7030C9417030C946B040C94E703E2
:100180000C94B3040C945F030C9407040C944F0379
:100190000C9439040C94B7030C94D3020C942804E7
:1001A0000C94EF030C945A040C946F030C941704F2
:1001B0000C94BB020C94C5040C9427030C942F03DD
:1001C0000C94E3020C94FF030C9467030C94BF039C
:1001D0000C9437030C94CB020C94F3020C94970309
:1001E0000C940E0311241FBECFEFD1E2DEBFCDBFB2
:1001F00000E00CBF12E0A0E0B2E0E8E2FBE000E0CB
:100200000BBF02C007900D92AE3DB107D9F723E0B6
:10021000AEEDB2E001C01D92AB30B207E1F70E9433
:10022000FE010C9492050C940000E0910903EF5F2D
:10023000EF70E0930903F0E0E850FD4F80830895EC
:100240009091C00095FFFCCF8093C6000895CF9396
:10025000DF93EC018991811103C0DF91CF91089563
:100260000E942001F7CFCF93C82F80E30E94200186
:1002700087E5CA3008F480E38C0F0E942001CF91FB
:100280000895CF93DF93C82FD62F88E20E942001D4
:100290008C2F8F700E9433018AE30E9420018C2FE3
:1002A00082958F700E94330189E20E942001C0FF75
:1002B00021C0449AC1FF20C0A29AC2FF1FC0409A29
:1002C000C3FF1EC0459AC4FF1DC0419AC5FF1CC094
:1002D000429AC6FF1BC0479ADD23D1F0439A5F9A2A
:1002E00085E0982F9A95F1F75F988A95F1F7DF915D
:1002F000CF9108954498DECFA298DFCF4098E0CF09
:100300004598E1CF4198E2CF4298E3CF4798E4CFB8
:100310004398E5CFCF9390910A03943061F168F44C
:10032000913078F4C82FCF77222399F187FD29C027
:1003300061E08C2F0E94410102C0983098F7CF9164
:100340000895C62FCF77222359F067FFF1CF60E0E1
:100350008CE30E94410160E08CE70E944101E8CFFC
:1003600067FF19C061E08CE30E94410161E08CE706
:100370000E94410110C0C42FCF77222329F047FFEC
:10038000D7CF61E08CE3E9CF47FF05C060E08CE3A5
:10039000EFCF87FDFBCF60E0CCCF0F931F93CF93C0
:1003A000E4E6F2E030E020E09081981320C0220FD4
:1003B000331FF901EC59FD4FC1810E94200121E05A
:1003C0004C2F6C2F8C2F0E948A0100E01AEFC8017D
:1003D0000197F1F720E04C2F6C2F8C2F0E948A019F
:1003E000C8010197F1F7CF911F910F9108952F5FE9
:1003F0003F4F32962D333105B9F6F5CF86E0809325
:10040000C2001092C50080E18093C40088E180930F
:10041000C10092E094BD85E085BD2FE027BD90939B
:100420006E009093F7029FEF9093F60224EF31E075
:100430003093F3022093F2022091F2023091F30202
:100440003093F1022093F00220E430E03093F50283
:100450002093F40292B95F983E9A3C9A9A9A389AFD
:100460003D9A399A3A9A3F9A3B9A579A469A8A9570
:10047000F1F74698789490910903809108039817B2
:10048000D1F390910903809108039817D1F3E0917B
:100490000803EF5FEF70E0930803F0E0E850FD4FD2
:1004A000D081CD2FC095CC1FCC27CC1FED2FEF775F
:1004B000E03408F7F0E08827EF59FD4F8F4F0C9498
:1004C0008A05510417033F036F039F03D7032004DA
:1004D000FC02E703370367038F03BF0307044104EC
:1004E000BD04AB02BB02CB02DB02EB02EF03300424
:1004F000C5045A0427034F037F03AF03F7037F04A8
:10050000A40491042F0357038703B703FF0339049F
:10051000B3049D041F0347037703A703DF032804E5
:10052000050362046B045F039703C7030F044904C8
:100530000E03A102B302C302D302E302CF031704E6
:10054000F30281E30E9420012C2F4AE46AE48AE44A
:100550000E948A0190CF82E30E9420012C2F4BE45D
:1005600062EB8BE4F5CF83E30E9420012C2F4DE753
:1005700061EA8AE6EDCF84E30E9420012C2F4DE74B
:1005800062EA88E4E5CF85E30E9420012C2F4DE745
:1005900061E989E4DDCF86E30E9420012C2F4DE73D
:1005A00061E888E6D5CF87E30E9420012C2F4DE734
:1005B00062E983E4CDCF88E30E9420012C2F4DE730
:1005C00061ED84E4C5CF89E30E9420012C2F4DE327
:1005D00061ED83E6BDCF80E30E9420012C2F4DEB1F
:1005E0006CE48CE4B5CF80E092E00E9427012C2FD0
:1005F0004DE762E682E6ACCF87E092E00E942701F9
:100600002C2F4DE76AE78AE7A3CF8EE092E00E94A5
:1006100027012C2F4DE761E681E69ACF83E192E036
:100620000E9427012C2F4DE762E482E491CF87E5F9
:100630000E9420012C2F4AEE64E384E389CF81E4F9
:100640000E9420012C2F4CEC68E388E381CF8AE5DF
:100650000E9420012C2F4CEE6AE38AE379CF83E5D8
:100660000E9420012C2F4DEC69E389E371CF85E4D2
:100670000E9420012C2F4AEC63E283E269CF82E5DD
:100680000E9420012C2F4BEC64E284E261CF84E4D1
:100690000E9420012C2F4BE868E288E259CF83E4C6
:1006A0000E9420012C2F4DE86AE28AE251CF86E4B5
:1006B0000E9420012C2F4AED69E289E249CF88E5AA
:1006C0000E9420012C2F4DEE6BE38BE341CF84E59C
:1006D0000E9420012C2F41EA63E183E139CF89E5B3
:1006E0000E9420012C2F43EC64E184E131CF87E4A8
:1006F0000E9420012C2F41E968E188E129CF82E4A2
:100700000E9420012C2F4DE76AE18AE121CF88E485
:100710000E9420012C2F48EC69E189E119CF85E581
:100720000E9420012C2F44EC63E083E011CF86E58A
:100730000E9420012C2F4CED6BE28BE209CF89E463
:100740000E9420012C2F4DE764E084E001CF8AE471
:100750000E9420012C2F49EC68E088E0F9CE8DE45E
:100760000E9420012C2F42E96AE08AE0F1CE8BE45E
:100770000E9420012C2F4DE769E089E0E9CE8FE44B
:100780000E9420012C2F44EC63E583E5E1CE8EE44A
:100790000E9420012C2F49EE6BE18BE1D9CE8BE238
:1007A0000E9420012C2F4DE76DE28BE6D1CE80E533
:1007B0000E9420012C2F43EE64E584E5C9CE8CE431
:1007C0000E9420012C2F48EE68E588E5C1CE81E526
:1007D0000E9420012C2F4BEE63E383E3B9CE8DE220
:1007E0000E9420012C2F4DE76DE78CE6B1CE8EE202
:1007F0000E9420012C2F4DE76CED8DE4A9CE8AE3F9
:100800000E9420012C2F4DE76DEA89E5A1CE80E4FE
:100810000E9420012C2F44EE69ED8CE299CE8CE2EF
:100820000E9420012C2F4DE76DE88BE091CE88E1EE
:1008300092E00E9427012C2F42ED6DE78DE788CED4
:100840008AE20E9420012C2F41EF6CE289E680CEE3
:100850008BE30E9420012C2F4DE76CE98AE578CECE
:100860008EE192E00E9427012C2F4DE761E481E4A4
:100870006FCE8DE30E9420012C2F4DE76DE78DE6B2
:1008800067CE8EE50E9420012C2F4DE763E783E7BA
:100890005FCE8FE20E9420012C2F4DE76BED84E6A6
:1008A00057CE83E292E00E9427012C2F41E76DE7AB
:1008B00081E74ECE80E20E9420012C2F4DE76DE1B2
:1008C0008DE146CE8DE292E00E9427012C2F4DE76C
:1008D0006DE58DE53DCE86E392E00E9427012C2F49
:1008E0004CE36CE38CE30E948A0180910A03D7FDFC
:1008F00004C0816080930A03BECD8E7FFBCF8DE361
:1009000092E00E9427012C2F4CE76CE78CE70E94B5
:100910008A0180910A03D7FD02C08260EBCF8D7FF0
:10092000E9CF84E492E00E94270180910A03D7FD79
:1009300002C08460DFCF8B7FDDCF88E492E00E942D
:1009400027012C2F4DE779CF8DE492E00E942701FB
:10095000D7FD91CDC0E5D2E08991882309F48BCDF4
:100960000E94CD01F9CF8BE592E00E94270182E63B
:10097000D7FD81CD0E94CD017ECD8EE592E00E9413
:10098000270183E6D7FFF6CF76CD81E692E00E947D
:100990002701D7FD70CD84E6EDCF1F920F920FB6E1
:1009A0000F9211240BB60F92CF92DF92EF92FF922B
:1009B0000F931F932F933F934F935F936F937F9367
:1009C0008F939F93AF93BF93CF93DF93EF93FF9357
:1009D0008091F702813009F481C08091F6028F3F47
:1009E000D1F02091F0023091F10221503109309381
:1009F000F1022093F0022091F0023091F102232BBA
:100A000051F42091F4023091F5023093F1022093D9
:100A1000F0020E9415010091EF02D091EE028D2F9D
:100A200090E09C0122523D4F7901F901C0810C17E1
:100A300081F0DD2EDD0CDD0CDD0C102F10951C235C
:100A4000CD2C11113AC0C095C023C1113FC0F70190
:100A5000008381E090E00D2E01C0880F0A94EAF730
:100A600080930A01809580930B01DF5FD83009F4F1
:100A7000D0E0D093EE0281E08093F702279A85B10F
:100A8000805885B9FF91EF91DF91CF91BF91AF91E0
:100A90009F918F917F916F915F914F913F912F9196
:100AA0001F910F91FF90EF90DF90CF900F900BBEB2
:100AB0000F900FBE0F901F90189510FF04C08C2D43
:100AC00080680E9415011695C394BBCFC0FF03C078
:100AD0008D2D0E941501C695D394B7CF80B1809516
:100AE0008093EF0282E0C8CFF999FECF92BD81BD1D
:100AF000F89A992780B50895262FF999FECF1FBA45
:100B000092BD81BD20BD0FB6F894FA9AF99A0FBE36
:100B100001960895EE0FFF1F881F8BBF0790F69177
:080B2000E02D1994F894FFCFB9
:100B280044454C4554450052455455524E00435394
:100B38005254004353444E00504F554E4400484FC2
:100B48004D45004241434B4152524F570052554E7A
:100B58002F53544F50004C53484946540052534861
:100B68004946540043424D004354524C004631001C
:100B78006469726563746F72790D00463300463597
:100B8800004637006138621A632A6428652366299B
:100B98006718681969046A086B096C586D0A6E1B36
:100BA8006F53705471337224733974137503762B31
:100BB8007734783B79147A3A304C314A324B336A7D
:100BC8003448354936683743384439632B6B2D6CC4
:100BD8002131402C2321242225115E7326012A6904
:100BE800285129522C0B2E4D2F643F5B3B5A3A5902
:0E0BF800271222325B2D5D1C0D7A3C0D3E5CF7
:00000001FF
