:100000000C9488000C94A9000C94A9000C94A900ED
:100010000C94A9000C94A9000C94A9000C94A900BC
:100020000C94A9000C94A9000C94A9000C94A900AC
:100030000C94A9000C94A9000C94A9000C94A9009C
:100040000C94A9000C94A9000C94A9000C94A9008C
:100050000C94A9000C9415060C94A9000C94A9000A
:100060000C94A9000C94A9000C94A9000C94A9006C
:100070000C94A9000C94A9000C94A9000C94A9005C
:100080000C94A9000C94A9000C94A9000C94A9004C
:100090000C94A9000C94A9000C94A9000C94A9003C
:1000A0000C94A9000C94A9000C94A9000C94A9002C
:1000B0000C94A9000C94A9000C94A9000C94A9001C
:1000C0000C94A9000C94A9000C94A9000C94A9000C
:1000D0000C94A9000C94A9000C94A9000C94A900FC
:1000E0000C94A9000C94B5050C948E020C94860512
:1000F0000C94A3050C94AC050C9491050C94B304DA
:100100000C946A050C94A1040C949A050C9448056F
:1001100011241FBECFEFD1E2DEBFCDBF00E00CBF88
:1001200014E0A0E0B2E0EEE1FEE000E00BBF02C0B0
:1001300007900D92A239B107D9F726E0A2E9B4E001
:1001400001C01D92AA3FB207E1F70E9417040C9468
:100150000D070C940000E091BD04EF5FEF70E09399
:10016000BD04F0E0E455FB4F808308959091C000FA
:1001700095FFFCCF8093C6000895CF93DF93EC01E9
:100180008991811103C0DF91CF9108950E94B6003B
:10019000F7CFCF93C82F80E30E94B60087E5CA301F
:1001A00008F480E38C0F0E94B600CF910895CF939E
:1001B000DF939091B7069923D1F0D62FC82F88E20C
:1001C0000E94B6008BE2D11101C08DE20E94B60000
:1001D0008C2F8F700E94C9008AE30E94B6008C2F7A
:1001E00082958F700E94C90089E20E94B600DF915B
:1001F000CF910895CF93DF93C82FD62F0E94D700B9
:10020000C0FF21C0449AC1FF20C0A29AC2FF1FC0F4
:10021000409AC3FF1EC0459AC4FF1DC0419AC5FF46
:100220001CC0429AC6FF1BC0479ADD23D1F0439AF7
:100230005F9A85E0982F9A95F1F75F988A95F1F784
:10024000DF91CF9108954498DECFA298DFCF4098F8
:10025000E0CF4598E1CF4198E2CF4298E3CF47986D
:10026000E4CF4398E5CFCF93DF93C82F8F7D8154A0
:10027000990BD0E04A9718F4DC2FD072CF7DCD30A7
:1002800089F080EE8C0F803450F48C2F0E94B600E1
:10029000EC2FF0E0E35CFC4FC081CD3749F4DF91F7
:1002A000CF9108958DE00E94B600D091F806CAE77C
:1002B000D11104C061E08CE30E94FA0061E08C2F50
:1002C0000E94FA0088EC90E0E0E9F1E03197F1F764
:1002D0000197D1F760E08C2F0E94FA00D11104C081
:1002E00060E08CE30E94FA0088EC90E0E0E9F1E045
:1002F0003197F1F70197D1F7D2CFFF920F931F9368
:10030000CF93DF93EC011091F906812F8170F82EC5
:1003100010FF04C060E08CE30E94FA00012F02701D
:1003200011FF04C060E08CE70E94FA0089918111FE
:1003300011C0FF2021F061E08CE30E94FA0000234D
:1003400021F061E08CE70E94FA00CDB7DEB7E5E06E
:100350000C94FF060E943301E9CF2091F806211189
:1003600007C02091F906237009F0CB010E947D019E
:100370000895FF920F931F93CF93DF93082FC62FFB
:10038000F42ED22F809100028D3739F060E08F7704
:100390000E94FA008DE7809300021091F906183050
:1003A00009F454C0E0F48FEF810F833030F1D111A4
:1003B00005C060E0802F8F770E94FA0007FF06C01B
:1003C0006D2F8CE30E94FA0000930002DD2329F0D8
:1003D00061E0802F8F770E94FA00C02F03C0CDE725
:1003E0001C3028F7CF77137080E009F080E88C2B61
:1003F000CDB7DEB7E5E00C94FF06D11105C060E093
:100400008C2F8F770E94FA00C7FF18C010FF05C01D
:1004100061E06D278CE30E94FA0011FF05C061E0E6
:100420006D278CE70E94FA00C093000288EC90E0F0
:10043000E0E9F1E03197F1F70197D1F7DD2391F28F
:1004400061E08C2F8F770E94FA00CCCFD11105C0CC
:1004500060E08F2D8F770E94FA00F7FE06C06D2FA7
:100460008CE30E94FA00F0920002DD2329F061E0A3
:100470008F2D8F770E94FA00CF2DB4CFCF93C62F48
:10048000803261F120F48E31B9F0CF910895883235
:1004900089F18133D1F781E092E00E94BD00809123
:1004A000F9068E7F8C2B8093F9062C2F4CE36CE39E
:1004B0008CE30E94B901E9CF88E092E00E94BD0080
:1004C0008091F9068D7F90E0C11192E0892B809395
:1004D000F9062C2F4CE76CE78CE7EBCF8FE092E02E
:1004E0000E94BD008091F906877F98E0C1110CC081
:1004F00090E00AC083E192E00E94BD008091F9067D
:100500008B7F94E0CC23A1F3892B8093F906BDCF98
:10051000B0E0A0E0EEE8F2E00C94E006182FC82F5F
:10052000CF77D82FD095DD1FDD27DD1FCF33A9F47E
:100530008091F9068C708C3081F417FD02C0CDE7F4
:1005400056C088E192E00E947D0181E09091F8061A
:10055000911180E08093F806F2CF6D2F8C2F0E94CE
:100560003E02F090F806F1101AC1E090F9068E2DC7
:10057000837020E809F420E02C2B6091C104709175
:10058000C20490E080E086179707B8F1CF3109F4F4
:10059000DBC008F027C1CF3009F4EEC008F011C16C
:1005A000CC2309F4BFC0C73009F4A1C0ECE9F3E0E3
:1005B00090E080E021812C1393C025E0289F8001EA
:1005C000299F100D112404561C4FF80180810E94B0
:1005D000B6002D2FF8014481638182810E94B90108
:1005E000C82FFF2021F06D2F8F770E94D7008C2F0E
:1005F000CDB7DEB7E8E00C94FC06FC01ED53FB4FF1
:1006000001813081231709F4C2C0402F50E04E5FB2
:100610005F4F840F951FB7CF91919D938F5F80138C
:10062000FBCF8BE217FD8DE20E94B60088E292E0DC
:100630000E94BD0017FD83CF8E2D8170C82EE0FE75
:1006400004C060E08CE30E94FA00EE2DE270DE2E22
:10065000E1FE04C060E08CE70E94FA0081E0809334
:10066000B706F01210C01092B706CC2021F061E05E
:100670008CE30E94FA00DD2009F461CF61E08CE791
:100680000E94FA005CCF1991E12EE894E7F8FDE7AB
:10069000EF1621F117FF04C061E08CE30E94FA001D
:1006A00061E08E2D0E94FA0088EC90E0E0E9F1E034
:1006B0003197F1F70197D1F760E08E2D0E94FA0093
:1006C00017FF04C060E08CE30E94FA0088EC90E021
:1006D000E0E9F1E03197F1F70197D1F7F394C1CF59
:1006E000019635968133910509F064CF28CF85E3D3
:1006F00092E00E94BD008AE72D2F4DE76AE793C084
:1007000081E492E00E94BD002D2F4DE762E482E477
:100710008AC086E492E00E94BD002D2F4DE761E47F
:1007200081E481C08BE492E00E94BD002D2F41E75F
:100730006DE781E778C085E592E00E94BD002D2F2E
:100740004DE76DE58DE56FC08EE592E00E94BD003E
:1007500061E672E085E692E017FDF1CE0E94AD0100
:10076000EECE80E792E00E94BD0063E772E087E78B
:1007700092E017FFF3CFE3CE82E892E00E94BD0043
:1007800065E872E089E892E017FFE8CFD8CEFC0177
:10079000EB53FB4FC8EBD6E0DE0180E040CFCF311A
:1007A00099F200F5CF3041F360F4CC2309F4BACFCD
:1007B000C73009F0FBCE85E392E00E94BD008AEFCE
:1007C0009BCFC63109F4A5CFC73109F0EFCE8DE834
:1007D00092E00E94BD0017FDB2CE60E972E084E9AC
:1007E00092E0BCCFC03309F4A6CF78F4C73209F445
:1007F000B8CFCF3209F0DACE8CE392E00E94BD0090
:100800002D2F4DE761E681E60EC0C73309F478CF9E
:10081000CF3309F0CBCE8EE292E00E94BD002D2FA7
:100820004DE762E682E60E94B901C82FE0CE86E07D
:100830008093C2001092C50081E28093C40092E0D0
:100840009093C00088E18093C10094BD85E085BD90
:100850002FE027BD90936E009093AB049FEF909391
:10086000AA0424EF31E03093A7042093A60420913A
:10087000A6043091A7043093A5042093A40420E497
:1008800030E03093A9042093A80492B95F983E9A6F
:100890003C9A9A9A389A3D9A399A3A9A3F9A3B9A50
:1008A000579A469A8A95F1F7469878949091BD04A4
:1008B0008091BC049817D1F39091BD048091BC0441
:1008C0009817D1F3E091BC04EF5FEF70E093BC04A4
:1008D000F0E0E455FB4F10818091F806882309F47D
:1008E00081C1C12FCF77612F6095661F6627661F74
:1008F0008C2F0E943E0217FF36C0D091F9068D2F33
:100900008C708C3049F4CF3339F488E992E00E943E
:100910007D011092F806CACFE091C004EA3018F5C4
:10092000F0E08827E956FB4F8F4F0C94CE06A104C8
:100930004805B3046A05860591059A05A305AC052B
:10094000B505D37080E809F480E08C2B8093BF0458
:10095000CC3109F497C008F049C0CF3009F476C013
:10096000C73109F481C08091C004823009F09ECF64
:1009700017FD24C18091F906837009F437C1C7308F
:1009800009F034C11092C0044091BF046091C104C9
:100990007091C20430E020E02617370708F4EBC05E
:1009A0009091BE04A091C104B091C204FD013296A1
:1009B0009F01290F311D253F314098F4AD53BB4FA6
:1009C0004C9311969C93A8EBB6E0ED53FB4F80E05F
:1009D0009F01235C34409813EDC03093C2042093F0
:1009E000C10485E593E00E947D0160CFC73201F12B
:1009F000CC32B1F0CF3109F0B6CF82E08093C004A1
:100A00001092BE048CEB92E00E947D0182E3D11132
:100A100001C081E30E9433018AE30E943301A3CF26
:100A200083E08093C00489EA92E00E947D019BCF1D
:100A300082E08093C0041092BE048CEB92E00E948E
:100A40007D0184E3D111E6CF83E3E4CF82E080939C
:100A5000C0041092BE048CEB92E00E947D0186E3FC
:100A6000D111D8CF85E3D6CF82E08093C004109215
:100A7000BE048CEB92E00E947D0188E3D111CACFC5
:100A800087E3C8CF81E08093C00485EE92E0CDCFAC
:100A9000C03219F048F4CE3159F485EF92E00E944B
:100AA0007D011092C0045FCFC832B9F3C133A9F3FE
:100AB000D37080E809F480E08C2B8093BF0482E03F
:100AC0008093C0041092BE04812F0E9488028EEF92
:100AD00092E0ABCFC03161F0C833A9F486E193E076
:100AE0000E947D0184E08093C0041092BE043BCF3D
:100AF0008CE193E00E947D0184E08093C00481E05A
:100B00008093BE0430CF82E293E0C9CF8C2F0E9445
:100B100088028CE293E00E947D0185E08093C0040E
:100B200022CF8C2F0E94880283E393E00E947D01F4
:100B300086E0F4CF8C2F0E9488028AE393E00E9423
:100B40007D0187E0EBCF8C2F0E94880282E493E046
:100B50000E947D0188E0E2CF8C2F0E9488028BE406
:100B600093E00E947D0189E0D9CF8C2F0E948802FA
:100B700084E593E094CFF901ED53FB4F818190819F
:100B800049130BC090E09F01235C344089130AC0D5
:100B90003093C2042093C10403CF90E00296280F43
:100BA000391FFACEDF01A80FB11D12962C912193A7
:100BB0009F5FE9CF2D9121938F5F0ACFC03209F457
:100BC00075CE50F4CE3109F471CE812F0E94880287
:100BD00060E00E94D7006ACEC83209F467CEC13304
:100BE000A1F764CE812F0E94880260CEC03209F442
:100BF0005DCEA8F4CE3109F459CE812F0E9488022F
:100C0000C82F61E00E94D700E091BE0481E08E0F02
:100C10008093BE04F0E0E854F94FC08347CEC83259
:100C200009F444CEC13349F741CE1F920F920FB65B
:100C30000F9211240BB60F92CF92DF92EF92FF9298
:100C40000F931F932F933F934F935F936F937F93D4
:100C50008F939F93AF93BF93CF93DF93EF93FF93C4
:100C60008091AB04813009F47DC08091AA048F3F4C
:100C7000D1F02091A4043091A50421503109309382
:100C8000A5042093A4042091A4043091A504232B4F
:100C900051F42091A8043091A9043093A504209325
:100CA000A4040E94AB000091A304D091A2048D2F54
:100CB00090E09C012E563B4F7901F901C0810C1741
:100CC00081F0DD2EDD0CDD0CDD0C102F10951C23CA
:100CD000CD2C111136C0C095C023C1113BC0F70106
:100CE000008381E090E00D2E01C0880F0A94EAF79E
:100CF00080930A01809580930B01DF5FD83009F45F
:100D0000D0E0D093A20481E08093AB04FF91EF91F7
:100D1000DF91CF91BF91AF919F918F917F916F9113
:100D20005F914F913F912F911F910F91FF90EF9005
:100D3000DF90CF900F900BBE0F900FBE0F901F90C3
:100D4000189510FF04C08C2D80680E94AB0016958A
:100D5000C394BFCFC0FF03C08D2D0E94AB00C695CA
:100D6000D394BBCF80B180958093A30482E0CCCF95
:100D7000F999FECF92BD81BDF89A992780B5089563
:100D8000262FF999FECF1FBA92BD81BD20BD0FB6A7
:100D9000F894FA9AF99A0FBE01960895EE0FFF1F84
:100DA000881F8BBF0790F691E02D19942F923F92E8
:100DB0004F925F926F927F928F929F92AF92BF926B
:100DC000CF92DF92EF92FF920F931F93CF93DF9317
:100DD000CDB7DEB7CA1BDB0B0FB6F894DEBF0FBE74
:100DE000CDBF19942A88398848885F846E847D84B1
:100DF0008C849B84AA84B984C884DF80EE80FD80C3
:100E00000C811B81AA81B981CE0FD11D0FB6F89438
:0E0E1000DEBF0FBECDBFED010895F894FFCFF9
:100E1E007D4C53484946540052534849465400436A
:100E2E00424D004354524C00636F6E666967206DED
:100E3E006F6465206F6E0A006D6163726F004445CA
:100E4E004C4554450052455455524E00435352544E
:100E5E00004353444E00484F4D45004C45465441C7
:100E6E0052524F570052554E2F53544F5000463149
:100E7E000066320D006469726563746F72790D00DD
:100E8E0046330066340D00646C6F616420222A22A2
:100E9E000D0046350066360D0066350D00463700EE
:100EAE0066380D0066370D00636F6E666967206DDC
:100EBE006F6465206F66660A006D6170206A6F79D7
:100ECE00737469636B2E206A6F7923006D617020D5
:100EDE0066756E6374696F6E206B65792028534852
:100EEE002D52455455524E20746F2066696E6973AB
:100EFE0068292023006D6170207768696368206B14
:100F0E0065793F3A00696E76616C69640D00202840
:100F1E0053482D52455455524E20746F2066696EBB
:100F2E00697368293A00312E75703A00322E757049
:100F3E003A002E494E56414C49440D002E646F77AF
:100F4E006E3A002E6C6566743A002E72696768748C
:100F5E003A002E6669726520313A002E6669726516
:100F6E0020323A002E6D61707065640D001D3132B5
:100F7E0021221101125152696B0B6C4D644C4A4B7C
:100F8E006A484968434463595A0D6D5C5B2C381AA4
:100F9E002A2823291819040809580A1B53543324E4
:100FAE003913032B343B143A2D7D1C7320181D1D51
:100FBE007D2A06692CF12B3D6B2D812C350B8D7DF9
:100FCE002D156C1C822E1D4DDC7D2F3664DB7D3085
:100FDE00144C4CBD31384AB17D32104BB27D333991
:100FEE006AA17D341148A27D353A49917D36126849
:100FFE00817D373B43927D381344D17D393C63D29A
:10100E003D3A2559AD7D3B2E5A9C7D3D266D7D7D0D
:10101E00400D2C59A241293838CC421B1A1ADB43F9
:10102E001A2A2A8D442A28288B45092323CA4622A8
:10103E002929DA472B18189148231919C84904048D
:10104E0004B24A2C0808C94B240909B14C2D585832
:10105E00E84D1C0A0A924E341B1BE94F0C5353E306
:10106E0050055454E451083333EB52022424CB532D
:10107E00213939CD540A1313A1550B0303C456332A
:10108E002B2BDC57013434EA58323B3BED59031419
:10109E0014C35A193A3AEC5C3E0252D15E0E737387
:0210AE007D00C3
:00000001FF
