:100000000C9472000C9493000C9493000C94930045
:100010000C9493000C9493000C9493000C94930014
:100020000C9493000C9493000C9493000C94930004
:100030000C9493000C9493000C9493000C949300F4
:100040000C9493000C9493000C9493000C949300E4
:100050000C9493000C9439030C9493000C9493002B
:100060000C9493000C9493000C9493000C949300C4
:100070000C9493000C9493000C9493000C949300B4
:100080000C9493000C9493000C9493000C949300A4
:100090000C9493000C9493000C9493000C94930094
:1000A0000C9493000C9493000C9493000C94930084
:1000B0000C9493000C9493000C9493000C94930074
:1000C0000C9493000C9493000C9493000C94930064
:1000D0000C9493000C9493000C9493000C94930054
:1000E0000C94930011241FBECFEFD1E2DEBFCDBF31
:1000F00000E00CBF13E0A0E0B2E0EEE1F8E000E0C9
:100100000BBF02C007900D92A03BB107D9F723E0C7
:10011000A0EBB3E001C01D92AD3DB207E1F70E9434
:10012000D3010C940D040C940000E091DB03EF5F0D
:10013000EF70E093DB03F0E0E653FC4F808308951B
:100140009091C00095FFFCCF8093C6000895CF9397
:10015000DF93EC018991811103C0DF91CF91089564
:100160000E94A000F7CFCF93C82F80E30E94A00089
:1001700087E5CA3008F480E38C0F0E94A000CF917D
:100180000895CF93DF93C82FD62F88E20E94A00056
:100190008BE2D11101C08DE20E94A0008C2F8F70E4
:1001A0000E94B3008AE30E94A0008C2F82958F707A
:1001B0000E94B30089E20E94A000C0FF21C0449ABF
:1001C000C1FF20C0A29AC2FF1FC0409AC3FF1EC039
:1001D000459AC4FF1DC0419AC5FF1CC0429AC6FF84
:1001E0001BC0479ADD23D1F0439A5F9A85E0982F90
:1001F0009A95F1F75F988A95F1F7DF91CF9108957D
:100200004498DECFA298DFCF4098E0CF4598E1CF69
:100210004198E2CF4298E3CF4798E4CF4398E5CFA7
:10022000DF92EF92FF920F931F93CF93DF938C0196
:10023000C091DC038C2F8170D82EC0FF04C060E019
:100240008CE30E94C100EC2FE270EE2EC1FF04C0CF
:1002500060E08CE70E94C100F801C1918F01C111DB
:1002600011C0DD2021F061E08CE30E94C100EE208E
:1002700021F061E08CE70E94C100CDB7DEB7E7E076
:100280000C94FD03CD30F9F080EE8C0F803420F714
:100290008C2F0E94A000EC2FF0E0E05BFC4FF08080
:1002A000FDE7FF16C9F261E08F2D0E94C100C0E09A
:1002B000DAEFCE010197F1F760E08F2D0E94C100C7
:1002C0002197F1F7C9CF8DE00E94A0008AE7F82EB0
:1002D000EACFFF920F931F93CF93DF93182FF62E41
:1002E000042FC22F809100028D3719F060E00E9428
:1002F000C100D091DC03D83009F441C0C0F48FEFC5
:100300008D0F8330D8F0C11105C060E0812F8F7749
:100310000E94C10017FF06C06C2F8CE30E94C10031
:1003200010930002CC2329F061E0812F24C0DC303F
:1003300050F7CDB7DEB7E5E00C94FF03C11105C05F
:1003400060E08F2D8F770E94C100F7FE10C0D0FFB4
:1003500005C061E06C278CE30E94C100D1FF05C09D
:1003600061E06C278CE70E94C100F092000261E01E
:100370008F2DCC23F1F28F770E94C100DACFC1110B
:1003800005C060E0802F8F770E94C10007FF06C084
:100390006C2F8CE30E94C1000093000261E0802F6B
:1003A000CC2339F2E8CF86E08093C2001092C500DA
:1003B00081E28093C40092E09093C00088E1809332
:1003C000C10094BD85E085BD2FE027BD90936E00F0
:1003D0009093C9039FEF9093C80324EF31E03093CB
:1003E000C5032093C4032091C4033091C503309307
:1003F000C3032093C20320E430E03093C70320936B
:10040000C60392B95F983E9A3C9A9A9A389A3D9A56
:10041000399A3A9A3F9A3B9A579A469A8A95F1F7AF
:10042000469878949091DB038091DA039817D1F382
:100430009091DB038091DA039817D1F3E091DA030E
:10044000EF5FEF70E093DA03F0E0E653FC4FD0810A
:100450008D2F8F77CD2FC095CC1FCC27CC1F80320E
:1004600009F4B8C0C0F5863109F490C088F487302B
:1004700009F471C08F3009F4DCC0811111C08EE124
:1004800092E00E94A7002C2F41E76DE781E720C092
:100490008E3109F48DC008F0B7C0873109F4D9C096
:1004A000EBE7F2E030E020E09181891343C085E082
:1004B000829F8001839F100D112405581D4FF80164
:1004C00080810E94A0002C2FF801448163818281E9
:1004D0000E946901A7CF803309F461C0B0F488326B
:1004E00009F484C08F3209F43FC08732C9F68AE527
:1004F00092E00E94A700D7FD95CF8091DC03837026
:1005000009F494C08DE592E08BC08733B1F18F334D
:10051000C9F0813329F681E392E00E94A70080911F
:10052000DC038E7F8C2B8093DC032C2F4CE36CE35D
:100530008CE3CECF2F5F3F4F35962133310509F045
:10054000B3CF70CF81E092E00E94A7002C2F4DE73F
:1005500062E682E6BDCF88E092E00E94A7002C2FE1
:100560004DE76AE78AE7B4CF8FE092E00E94A700E8
:100570002C2F4DE761E681E6ABCF84E192E00E944B
:10058000A7002C2F4DE762E482E4A2CF89E192E03C
:100590000E94A7002C2F4DE761E481E499CF88E207
:1005A00092E00E94A7002C2F4DE76DE58DE590CFDE
:1005B00088E392E00E94A7008091DC038D7F92E0A7
:1005C000D7FD90E0892B8093DC032C2F4CE76CE760
:1005D0008CE77ECF8FE392E00E94A7008091DC033E
:1005E000877F98E0D7FF0CC090E00AC083E492E0D8
:1005F0000E94A7008091DC038B7F94E0D7FDF4CFAD
:10060000892B8093DC030ECF88E492E00E94A70040
:10061000D7FD08CF8091DC03837029F08BE492E052
:100620000E941001FFCE8FE492E0FACF81E692E0C3
:10063000F7CF85E692E00E94A700D7FDF3CE809128
:10064000DC03837019F088E692E0EACF8CE692E052
:10065000E7CF80E792E00E94A700D7FDE3CE80912C
:10066000DC03837019F083E792E0DACF87E792E04A
:10067000D7CF1F920F920FB60F9211240BB60F9285
:10068000CF92DF92EF92FF920F931F932F933F939E
:100690004F935F936F937F938F939F93AF93BF938A
:1006A000CF93DF93EF93FF938091C903813009F4D7
:1006B0007DC08091C8038F3FD1F02091C20330915B
:1006C000C303215031093093C3032093C203209107
:1006D000C2033091C303232B51F42091C603309100
:1006E000C7033093C3032093C2030E949500009177
:1006F000C103D091C0038D2F90E09C0120553C4F49
:100700007901F901C0810C1781F0DD2EDD0CDD0CC3
:10071000DD0C102F10951C23CD2C111136C0C09567
:10072000C023C1113BC0F701008381E090E00D2E92
:1007300001C0880F0A94EAF780930A01809580939C
:100740000B01DF5FD83009F4D0E0D093C00381E023
:100750008093C903FF91EF91DF91CF91BF91AF914A
:100760009F918F917F916F915F914F913F912F91C9
:100770001F910F91FF90EF90DF90CF900F900BBEE5
:100780000F900FBE0F901F90189510FF04C08C2D76
:1007900080680E9495001695C394BFCFC0FF03C028
:1007A0008D2D0E949500C695D394BBCF80B18095C6
:1007B0008093C10382E0CCCFF999FECF92BD81BD79
:1007C000F89A992780B50895262FF999FECF1FBA78
:1007D00092BD81BD20BD0FB6F894FA9AF99A0FBE6A
:1007E000019608952A88398848885F846E847D84BC
:1007F0008C849B84AA84B984C884DF80EE80FD80C9
:100800000C811B81AA81B981CE0FD11D0FB6F8943E
:0E081000DEBF0FBECDBFED010895F894FFCFFF
:10081E007D44454C4554450052455455524E004377
:10082E00535254004353444E00484F4D45004C45DF
:10083E0046544152524F570052554E2F53544F501B
:10084E00004C5348494654005253484946540043BD
:10085E00424D004354524C0046310046320D004486
:10086E0049524543544F52590D0046330046340DFC
:10087E000046330D0046350046360D0046350D0058
:10088E0046370046380D0046370D0020181D1D7DD9
:10089E002A06692CF12B3D6B2D812C350B8D7D2D70
:1008AE00156C1C822E1D4DDC7D2F3664DB7D3014C5
:1008BE004C4CBD31384AB17D32104BB27D33396A62
:1008CE00A17D341148A27D353A49917D3612688159
:1008DE007D373B43927D381344D17D393C63D23D05
:1008EE003A2559AD7D3B2E5A9C7D3D266D7D7D4032
:1008FE000D2C59A241293838CC421B1A1ADB431A47
:10090E002A2A8D442A28288B45092323CA462229C0
:10091E0029DA472B18189148231919C849040404D9
:10092E00B24A2C0808C94B240909B14C2D5858E875
:10093E004D1C0A0A924E341B1BE94F0C5353E350C5
:10094E00055454E451083333EB52022424CB532183
:10095E003939CD540A1313A1550B0303C456332B47
:10096E002BDC57013434EA58323B3BED5903141457
:10097E00C35A193A3AEC5C3E0252D15E0E73737D45
:10098E001D313221221101125152696B0B6C4D64D3
:10099E004C4A4B6A484968434463595A0D6D5C5B37
:1009AE002C381A2A2823291819040809580A1B5307
:1009BE005433243913032B343B143A2D7D1C73000E
:00000001FF
