:100000000C94F2000C9413010C9413010C94130142
:100010000C9413010C9413010C9413010C94130110
:100020000C9413010C9413010C9413010C94130100
:100030000C9413010C9413010C9413010C941301F0
:100040000C9413010C9413010C9413010C941301E0
:100050000C9413010C94F9030C9413010C941301E8
:100060000C9413010C9413010C9413010C941301C0
:100070000C9413010C9413010C9413010C941301B0
:100080000C9413010C9413010C9413010C941301A0
:100090000C9413010C9413010C9413010C94130190
:1000A0000C9413010C9413010C9413010C94130180
:1000B0000C9413010C9413010C9413010C94130170
:1000C0000C9413010C9413010C9413010C94130160
:1000D0000C9413010C9413010C9413010C94130150
:1000E0000C9413010C9480020C9439020C94340388
:1000F0000C94AF030C9481030C9471020C946C0368
:100100000C94CD030C94D9020C945C020C946A02FA
:100110000C9488030C94C4020C9478020C94A002F2
:100120000C9473030C9426030C94F5020C941103A5
:100130000C940A030C9442030C94BE030C946503C4
:100140000C94E0030C9463020C94E7020C942D03CE
:100150000C94B6030C94D2020C94E0020C94570356
:100160000C94AF020C94B6020C9450030C949A02B7
:100170000C94CB020C94A1030C94C5030C948B0338
:100180000C9455020C94A8020C9499030C9403034C
:100190000C9497020C94EF030C94FC020C94BD0297
:1001A0000C945E030C94A8030C9430020C94880207
:1001B0000C949D020C9492030C9447020C941F0320
:1001C0000C9418030C943B030C9490020C94400282
:1001D0000C9449030C94F6030C94EE020C947A03ED
:1001E0000C944E0211241FBECFEFD1E2DEBFCDBF73
:1001F00000E00CBF12E0A0E0B2E0E0E8F9E000E0CF
:100200000BBF02C007900D92AA35B107D9F722E0C3
:10021000AAE5B2E001C01D92A738B207E1F70E943B
:100220008B010C94BE040C94000080FF1CC0449A07
:1002300081FF1BC0A09A82FF1AC0A29A83FF19C037
:10024000439A84FF18C05F9A85FF17C0409A86FFC3
:1002500016C0459A6623A9F0419AA19A85E08A952D
:10026000F1F7A19808954498E3CFA098E4CFA2981D
:10027000E5CF4398E6CF5F98E7CF4098E8CF459821
:10028000E9CF4198EACFCF93C62F90918602937021
:100290004423A1F061E0992369F0C7FF08C060E042
:1002A0008CE30E94150160E08CE70E94150161E07B
:1002B0008C2F8F770E941501CF91089560E09923CC
:1002C000C9F3C7FF08C061E08CE30E94150161E03B
:1002D0008CE70E94150160E0EBCFE0918502EF5FB3
:1002E000EF70E0938502F0E0EC58FD4F80830895B5
:1002F0009091C00095FFFCCF8093C6000895CF93E6
:10030000DF93EC018991811103C0DF91CF910895B2
:100310000E947801F7CF86E08093C2001092C5005A
:1003200081E28093C40092E09093C00088E18093C2
:10033000C10094BD85E085BD2FE027BD90936E0080
:10034000909373029FEF9093720224EF31E0309309
:100350006F0220936E0220916E0230916F023093F3
:100360006D0220936C0220E430E030937102209300
:10037000700292B9A1983E9A3C9A989A9A9A3B9A9E
:10038000579A389A3D9A399A999A469A8A95F1F7E6
:100390004698789490918502809184029817D1F3C1
:1003A00090918502809184029817D1F3E0918402A4
:1003B000EF5FEF70E0938402F0E0EC58FD4FD081E6
:1003C000CD2FC095CC1FCC27CC1FED2FEF77E0347D
:1003D00008F7F0E08827E051FE4F8F4F0C94B604E9
:1003E000B603A802CB02F5021F0350038B03800261
:1003F0005E03C402EE0211033B037A03A8039D02CD
:1004000039024702550263027102650399039002A3
:10041000BE03B602D90203032D036C03E003970267
:10042000EF03BD02E0020A0334037303A1039A023F
:10043000F603AF02D202FC0226035703920388029E
:10044000C503CD03E702180342038103AF03A002F3
:10045000300240024E025C026A02490388037802BD
:1004600081E30E9478014C2F6AE48AE40E944301F0
:1004700091CF82E30E9478014C2F62EB8BE4F6CFA0
:1004800083E30E9478014C2F61EA8AE6EFCF84E390
:100490000E9478014C2F62EA88E4E8CF85E30E944D
:1004A00078014C2F61E989E4E1CF86E30E9478016D
:1004B0004C2F61E888E6DACF87E30E9478014C2F61
:1004C00062E983E4D3CF88E30E9478014C2F61ED89
:1004D00084E4CCCF89E30E9478014C2F61ED83E660
:1004E000C5CF80E30E9478014C2F6CE48CE4BECF32
:1004F00080E092E00E947F014C2F62E682E6B6CF58
:1005000087E092E00E947F014C2F6AE78AE7AECF36
:100510008EE092E00E947F014C2F61E681E6A6CF3B
:1005200083E192E00E947F014C2F6DE700C186E1DC
:1005300092E0F8CF89E192E0F5CF8CE192E0F2CF42
:100540008FE192E00E947F014C2F62E482E48ECF23
:1005500087E50E9478014C2F64E384E387CF81E430
:100560000E9478014C2F68E388E380CF8AE50E94DF
:1005700078014C2F6AE38AE379CF83E50E94780102
:100580004C2F69E389E372CF85E40E9478014C2FF8
:1005900063E283E26BCF82E50E9478014C2F64E234
:1005A00084E264CF84E40E9478014C2F68E288E200
:1005B0005DCF83E40E9478014C2F6AE28AE256CF35
:1005C00086E40E9478014C2F69E289E24FCF88E5EA
:1005D0000E9478014C2F6BE38BE348CF84E50E94A7
:1005E00078014C2F63E183E141CF89E50E947801D6
:1005F0004C2F64E184E13ACF87E40E9478014C2FCC
:1006000068E188E133CF82E40E9478014C2F6AE1EF
:100610008AE12CCF88E40E9478014C2F69E189E1BE
:1006200025CF85E50E9478014C2F63E083E01ECF43
:1006300086E50E9478014C2F6BE28BE217CF89E4AC
:100640000E9478014C2F64E084E010CF8AE40E947D
:1006500078014C2F68E088E009CF8DE40E94780192
:100660004C2F6AE08AE002CF8BE40E9478014C2F85
:1006700069E089E0FBCE8FE40E9478014C2F63E5AE
:1006800083E5F4CE8EE40E9478014C2F6BE18BE180
:10069000EDCE8BE20E9478014C2F6DE28BE6E6CE28
:1006A00080E50E9478014C2F64E584E5DFCE8CE480
:1006B0000E9478014C2F68E588E5D8CE81E50E943C
:1006C00078014C2F63E383E3D1CE8DE20E94780161
:1006D0004C2F6DE78CE6CACE8EE20E9478014C2F3B
:1006E0006CED8DE4C3CE8AE30E9478014C2F6DEA55
:1006F00089E5BCCE80E40E9478014C2F69ED8CE244
:10070000B5CE8CE20E9478014C2F6DE88BE0AECE26
:1007100084E292E007CF8AE20E9478014C2F61E8E0
:1007200089E6A4CE8BE30E9478014C2F6CE98DE71B
:100730009DCE8AE292E00E947F014C2F61E481E429
:1007400095CE8DE30E9478014C2F6DE78DE68ECE1D
:100750008EE50E9478014C2F63E783E787CE8FE216
:100760000E9478014C2F6BED84E680CE8FE292E000
:100770000E947F014C2F6DE781E778CE80E20E94D6
:1007800078014C2F6DE18DE171CE89E392E00E94FA
:100790007F014C2F6DE58DE569CE82E492E00E94E9
:1007A0007F014C2F6CE38CE30E9443018091860211
:1007B000D7FD04C0816080938602ECCD8E7FFBCF95
:1007C00089E492E00E947F014C2F6CE78CE70E9445
:1007D000430180918602D7FD07C08260ECCF80E59F
:1007E00092E00E947F01F5CF8D7FE5CF84E592E016
:1007F00099CE1F920F920FB60F9211240BB60F9243
:10080000CF92DF92EF92FF920F931F932F933F931C
:100810004F935F936F937F938F939F93AF93BF9308
:10082000CF93DF93EF93FF9380917302813009F4AC
:1008300081C0809172028F3FD1F020916C02309183
:100840006D022150310930936D0220936C0220918A
:100850006C0230916D02232B51F420917002309183
:10086000710230936D0220936C020E946D01009121
:100870006B02D0916A028D2F90E09C01265A3D4F69
:100880007901F901C0810C1781F0DD2EDD0CDD0C42
:10089000DD0C102F10951C23CD2C11113AC0C095E2
:1008A000C023C1113FC0F701008381E090E00D2E0D
:1008B00001C0880F0A94EAF780930A01809580931B
:1008C0000B01DF5FD83009F4D0E0D0936A0281E0F9
:1008D00080937302279A85B1805885B9FF91EF9173
:1008E000DF91CF91BF91AF919F918F917F916F9148
:1008F0005F914F913F912F911F910F91FF90EF903A
:10090000DF90CF900F900BBE0F900FBE0F901F90F7
:10091000189510FF04C08C2D80680E946D011695FB
:10092000C394BBCFC0FF03C08D2D0E946D01C6953F
:10093000D394B7CF80B1809580936B0282E0C8CF0B
:10094000F999FECF92BD81BDF89A992780B5089597
:10095000262FF999FECF1FBA92BD81BD20BD0FB6DB
:10096000F894FA9AF99A0FBE01960895EE0FFF1FB8
:10097000881F8BBF0790F691E02D1994F894FFCF54
:1009800044454C4554450052455455524E0043533E
:100990005254004637004631004633004635004386
:1009A00053444E00504F554E4400484F4D45004271
:1009B00041434B4152524F570052554E2F53544FC3
:1009C00050004C534849465400525348494654003D
:0A09D00043424D004354524C000016
:00000001FF
