:100000000C94E4000C9405010C9405010C9405017A
:100010000C9405010C9405010C9405010C94050148
:100020000C9405010C9405010C9405010C94050138
:100030000C9405010C9405010C9405010C94050128
:100040000C9405010C9405010C9405010C94050118
:100050000C9405010C94BE020C9405010C9405014E
:100060000C9405010C9405010C9405010C940501F8
:100070000C9405010C9405010C9405010C940501E8
:100080000C9405010C9405010C9405010C940501D8
:100090000C9405010C9405010C9405010C940501C8
:1000A0000C9405010C9405010C9405010C940501B8
:1000B0000C9405010C9405010C9405010C940501A8
:1000C0000C9405010C9405010C9405010C94050198
:1000D0000C9405010C9405010C9405010C94050188
:1000E0000C9405010C9468020C9466020C94A50211
:1000F0000C9479020C946E020C9449020C94040244
:100100000C94A7020C9440020C945A020C9418020E
:100110000C942B020C94FF010C94A1020C94850208
:100120000C9424020C947D020C94F5010C94B10201
:100130000C9411020C948B020C94B9020C945C0286
:100140000C940A020C9460020C946C020C948D02C4
:100150000C9477020C94B7020C9464020C9407027E
:100160000C947B020C944D020C9490020C94890226
:100170000C9458020C943E020C9442020C94870298
:100180000C944B020C946A020C9422020C946202AE
:100190000C94AA020C94A3020C949F020C945E028D
:1001A0000C944F020C94BB020C948F010C947502BA
:1001B0000C9456020C9420020C941E020C947F02A4
:1001C0000C9481020C94830211241FBECFEFD1E264
:1001D000DEBFCDBF00E00CBF12E0A0E0B2E0EAE07D
:1001E000F7E000E00BBF02C007900D92A434B10706
:1001F000D9F722E0A4E4B2E001C01D92A137B20712
:10020000E1F70E9454010C9483030C940000862BA8
:1002100085B95E9A5E980895CF93C62F909170022B
:1002200093704423A1F061E0992369F0C7FF08C0EF
:1002300060E080E30E94070160E080E30E94070124
:1002400061E08C2F8F770E940701CF91089560E0C5
:100250009923C9F3C7FF08C061E080E30E9407014A
:1002600061E080E30E94070160E0EBCFE0916F0264
:10027000EF5FEF70E0936F02F0E0E25AFD4F808392
:1002800008959091C00095FFFCCF8093C60008951B
:10029000CF93DF93EC018991811103C0DF91CF915E
:1002A00008950E944101F7CF86E08093C20010922A
:1002B000C50080E18093C40088E18093C10082E0A2
:1002C00084BD95E095BD9FE097BD80936E008093BF
:1002D0005D028FEF80935C0224EF31E0309359028E
:1002E00020935802209158023091590230935702BE
:1002F0002093560220E430E030935B0220935A02B0
:1003000082B95E98569A84B9C0E88C2F8195880F7F
:1003100060E08E5F0E940701C150B9F77894909118
:100320006F0280916E029817D1F390916F028091C5
:100330006E029817D1F3E0916E02EF5FEF70E093D9
:100340006E02F0E0E25AFD4FD081CD2FC095CC1F58
:10035000CC27CC1FED2FEF77E03408F7F0E08827AB
:10036000EB54FE4F8F4F0C947B03A7021102400207
:100370005A026A027F028B02FF01B902240256026E
:10038000640279028F01A1028F01B1021E024902AB
:100390005E026E0283028D028F01B70220024B02C1
:1003A00060027502850290028F018F0122024D02C8
:1003B0006202770287029F028F01AA02180242029C
:1003C0005C026C0281028F010402BB022B024F020D
:1003D00066027B028902A3020702A5020A023E020C
:1003E000580268027D028F01F50180E092E00E94D0
:1003F00048014C2F62E082E00E940C0190CF87E020
:1004000092E00E94480109C08EE092E0FACF83E1B9
:1004100092E0EDCF83E30E9441014C2F60E080E049
:10042000EBCF87E50E9441014C2F62E182E1E4CFEE
:1004300081E40E9441014C2F62E329C084E3F9CF9B
:100440008AE5E9CF83E5E7CF85E40E9441014C2F9F
:1004500062E282E2D1CF88E192E00E9448014C2F13
:1004600060E380E30E940C0180917002D7FD04C01C
:1004700081608093700253CF8E7FFBCF85E3CBCF1B
:1004800082E5D0CF84E40E9441014C2F62E182E3F7
:10049000B3CF86E3CECF83E4BECF86E4BCCF88E57E
:1004A0000E9441014C2F60E180E1A6CF84E5CDCFD1
:1004B00087E3CBCF89E5B6CF87E4BBCF88E3B2CF64
:1004C00082E4A9CF88E4A7CF85E5BFCF86E5E8CF52
:1004D00089E3BBCF89E4A6CF8AE4ABCF80E30E9457
:1004E00041014C2F60E380E387CF8DE494CF8BE410
:1004F00092CF8FE4AACF8EE4D3CF8BE2D1CF80E529
:1005000091CF8CE496CF8DE2EACF8EE284CF8AE35E
:1005100082CF8CE2C5CF8AE27ECF8FE192E071CFAD
:1005200084E292E00E9448014C2F60E380E30E9445
:100530000C0180917002D7FD12C082609ACF8DE3CA
:100540006ACF8EE582CF8FE26DCF81E364CF8BE2FD
:1005500092E057CF85E392E00E944801EACF8D7F79
:1005600088CF82E30E9441014C2F62E89DCF80E258
:1005700052CF81E56ACF8AE392E043CF1F920F9278
:100580000FB60F9211240BB60F92CF92DF92EF921B
:10059000FF920F931F932F933F934F935F936F930C
:1005A0007F938F939F93AF93BF93CF93DF93EF93FB
:1005B000FF9380915D02813009F481C080915C02DB
:1005C0008F3FD1F0209156023091570221503109CE
:1005D00030935702209356022091560230915702D1
:1005E000232B51F420915A0230915B023093570231
:1005F000209356020E94360100915502D091540278
:100600008D2F90E09C012C5B3D4F7901F901C08159
:100610000C1781F0DD2EDD0CDD0CDD0C102F10959C
:100620001C23CD2C11113AC0C095C023C1113FC06D
:10063000F701008381E090E00D2E01C0880F0A943D
:10064000EAF780930A01809580930B01DF5FD83031
:1006500009F4D0E0D093540281E080935D02279AA0
:1006600085B1805885B9FF91EF91DF91CF91BF910E
:10067000AF919F918F917F916F915F914F913F913A
:100680002F911F910F91FF90EF90DF90CF900F90DF
:100690000BBE0F900FBE0F901F90189510FF04C057
:1006A0008C2D80680E9436011695C394BBCFC0FF85
:1006B00003C08D2D0E943601C695D394B7CF80B16B
:1006C00080958093550282E0C8CFF999FECF92BD04
:1006D00081BDF89A992780B50895262FF999FECF04
:1006E0001FBA92BD81BD20BD0FB6F894FA9AF99A4F
:1006F0000FBE01960895EE0FFF1F881F8BBF079056
:0A070000F691E02D1994F894FFCF54
:10070A0044454C4554450052455455524E004353B6
:10071A005254004353444E004C53484946540048EF
:10072A004F4D4500525348494654004241434B41BC
:10073A0052524F57004354524C0052554E2F535465
:04074A004F5000000C
:00000001FF
