:100000000C9472000C9486000C9486000C9486006C
:100010000C9486000C9486000C9486000C94860048
:100020000C9486000C9486000C9486000C94860038
:100030000C9486000C9486000C9486000C94860028
:100040000C9486000C9486000C9486000C94860018
:100050000C9486000C9405010C9486000C94860088
:100060000C9486000C9486000C9486000C948600F8
:100070000C9486000C9486000C9486000C948600E8
:100080000C9486000C9486000C9486000C948600D8
:100090000C9486000C9486000C9486000C948600C8
:1000A0000C9486000C9486000C9486000C948600B8
:1000B0000C9486000C9486000C9486000C948600A8
:1000C0000C9486000C9486000C9486000C94860098
:1000D0000C9486000C9486000C9486000C94860088
:1000E0000C94860011241FBECFEFD1E2DEBFCDBF3E
:1000F00000E00CBF22E0A0E0B2E001C01D92AC31F4
:10010000B207E1F70E94A1000C94C2010C94000018
:10011000429AA098A29A439A5F98409A459A882357
:1001200039F0419AA19A85E08A95F1F7A19808954E
:100130004198F8CF809101028F5F8F708093010208
:10014000089586E08093C2001092C50081E28093FA
:10015000C40092E09093C00088E18093C10094BDF8
:1001600085E085BD2FE027BD90936E0090931B0224
:100170009FEF90931A0224EF31E0309317022093FF
:100180001602209116023091170230931502209327
:10019000140220E430E0309319022093180292B93F
:1001A000A1983C9A3A9A989A9A9A3B9A579A389A6E
:1001B0003D9A399A999A449A8A95F1F74498789495
:1001C0008091C00085FFFCCF83E38093C6008091BF
:1001D000C00085FFFCCF84E68093C60081E00E94CA
:1001E000880080E197E2E0E9F1E03197F1F70197CB
:1001F000D1F780E00E94880080E197E2E0E9F1E039
:100200003197F1F70197D1F7DBCF1F920F920FB61D
:100210000F9211240BB60F92CF92DF92EF92FF92C2
:100220000F931F932F933F934F935F936F937F93FE
:100230008F939F93AF93BF93CF93DF93EF93FF93EE
:1002400080911B02813009F481C080911A028F3F96
:10025000D1F02091140230911502215031093093D0
:100260001502209314022091140230911502232BC1
:1002700051F4209118023091190230931502209305
:1002800014020E949A0000911302D09112028D2F45
:1002900090E09C012E5F3D4F7901F901C0810C1760
:1002A00081F0DD2EDD0CDD0CDD0C102F10951C23F4
:1002B000CD2C11113AC0C095C023C1113FC0F70128
:1002C000008381E090E00D2E01C0880F0A94EAF7C8
:1002D00080930A01809580930B01DF5FD83009F489
:1002E000D0E0D093120281E080931B02279A85B15F
:1002F000805885B9FF91EF91DF91CF91BF91AF9178
:100300009F918F917F916F915F914F913F912F912D
:100310001F910F91FF90EF90DF90CF900F900BBE49
:100320000F900FBE0F901F90189510FF04C08C2DDA
:1003300080680E949A001695C394BBCFC0FF03C08B
:100340008D2D0E949A00C695D394B7CF80B1809529
:100350008093130282E0C8CFF999FECF92BD81BD90
:10036000F89A992780B50895262FF999FECF1FBADC
:1003700092BD81BD20BD0FB6F894FA9AF99A0FBECE
:0803800001960895F894FFCFE7
:00000001FF
