:100000000C9472000C9486000C9486000C9486006C
:100010000C9486000C9486000C9486000C94860048
:100020000C9486000C9486000C9486000C94860038
:100030000C9486000C9486000C9486000C94860028
:100040000C9486000C9486000C9486000C94860018
:100050000C9486000C944B010C9486000C94860042
:100060000C9486000C9486000C9486000C948600F8
:100070000C9486000C9486000C9486000C948600E8
:100080000C9486000C9486000C9486000C948600D8
:100090000C9486000C9486000C9486000C948600C8
:1000A0000C9486000C9486000C9486000C948600B8
:1000B0000C9486000C9486000C9486000C948600A8
:1000C0000C9486000C9486000C9486000C94860098
:1000D0000C9486000C9486000C9486000C94860088
:1000E0000C94860011241FBECFEFD1E2DEBFCDBF3E
:1000F00000E00CBF22E0A0E0B2E001C01D92AC31F4
:10010000B207E1F70E94D2000C9408020C940000A0
:1001100080FF1CC0449A81FF1BC0A09A82FF1AC0B6
:10012000A29A83FF19C0439A84FF18C05F9A85FF83
:1001300017C0409A86FF16C0459A6623A9F0419AD7
:10014000A19A85E08A95F1F7A19808954498E3CFA4
:10015000A098E4CFA298E5CF4398E6CF5F98E7CF89
:100160004098E8CF4598E9CF4198EACF80910102C5
:100170008F5F8F708093010208959091C00095FF6A
:10018000FCCF8093C6000895CF93C82F80E30E94D0
:10019000BD0080E38C0FCA3009F481E60E94BD00E7
:1001A000CF91089586E08093C2001092C50081E24D
:1001B0008093C40092E09093C00088E18093C100D6
:1001C00094BD85E085BD2FE027BD90936E00909390
:1001D0001B029FEF90931A0224EF31E03093170235
:1001E00020931602209116023091170230931502C7
:1001F0002093140220E430E0309319022093180277
:1002000092B9A1983E9A3C9A989A9A9A3B9A579A90
:10021000389A3D9A399A999A469A8A95F1F746986A
:100220007894C0E010E0D0E08C2F0E94C4008AE3F4
:100230000E94BD008DE00E94BD008AE00E94BD00CA
:100240008D2F0E94C4008DE00E94BD008AE00E94B4
:10025000BD00012F0C2B61E0802F0E94880080E1FF
:1002600097E2E0E9F1E03197F1F70197D1F760E02B
:10027000802F0E94880080E197E2E0E9F1E0319769
:10028000F1F70197D1F7DF5F105FD83069F6CF5FE4
:10029000CA3041F6FFCF1F920F920FB60F92112472
:1002A0000BB60F92CF92DF92EF92FF920F931F93B4
:1002B0002F933F934F935F936F937F938F939F936E
:1002C000AF93BF93CF93DF93EF93FF9380911B0284
:1002D000813009F481C080911A028F3FD1F02091C2
:1002E00014023091150221503109309315022093E8
:1002F00014022091140230911502232B51F4209105
:1003000018023091190230931502209314020E94B2
:10031000B60000911302D09112028D2F90E09C0143
:100320002E5F3D4F7901F901C0810C1781F0DD2E60
:10033000DD0CDD0CDD0C102F10951C23CD2C1111C4
:100340003AC0C095C023C1113FC0F701008381E0CE
:1003500090E00D2E01C0880F0A94EAF780930A01FD
:10036000809580930B01DF5FD83009F4D0E0D09303
:10037000120281E080931B02279A85B1805885B9CB
:10038000FF91EF91DF91CF91BF91AF919F918F91AD
:100390007F916F915F914F913F912F911F910F919D
:1003A000FF90EF90DF90CF900F900BBE0F900FBE9D
:1003B0000F901F90189510FF04C08C2D80680E942C
:1003C000B6001695C394BBCFC0FF03C08D2D0E940D
:1003D000B600C695D394B7CF80B1809580931302B1
:1003E00082E0C8CFF999FECF92BD81BDF89A9927D6
:1003F00080B50895262FF999FECF1FBA92BD81BD11
:1004000020BD0FB6F894FA9AF99A0FBE0196089596
:04041000F894FFCF8E
:00000001FF
