:100000000C9488000C94A9000C94A9000C94A900ED
:100010000C94A9000C94A9000C94A9000C94A900BC
:100020000C94A9000C94A9000C94A9000C94A900AC
:100030000C94A9000C94A9000C94A9000C94A9009C
:100040000C94A9000C94A9000C94A9000C94A9008C
:100050000C94A9000C9402060C94A9000C94A9001D
:100060000C94A9000C94A9000C94A9000C94A9006C
:100070000C94A9000C94A9000C94A9000C94A9005C
:100080000C94A9000C94A9000C94A9000C94A9004C
:100090000C94A9000C94A9000C94A9000C94A9003C
:1000A0000C94A9000C94A9000C94A9000C94A9002C
:1000B0000C94A9000C94A9000C94A9000C94A9001C
:1000C0000C94A9000C94A9000C94A9000C94A9000C
:1000D0000C94A9000C94A9000C94A9000C94A900FC
:1000E0000C94A9000C94A2050C9482020C94730544
:1000F0000C9490050C9499050C947E050C94A00426
:100100000C9457050C948E040C9487050C943505BB
:1001100011241FBECFEFD1E2DEBFCDBF00E00CBF88
:1001200014E0A0E0B2E0E8EFFDE000E00BBF02C0A9
:1001300007900D92AA38B107D9F726E0AAE8B4E0F3
:1001400001C01D92A23FB207E1F70E9404040C9483
:10015000FA060C940000E091B504EF5FEF70E093B5
:10016000B504F0E0EC55FB4F808308959091C000FA
:1001700095FFFCCF8093C6000895CF93DF93EC01E9
:100180008991811103C0DF91CF9108950E94B6003B
:10019000F7CFCF93C82F80E30E94B60087E5CA301F
:1001A00008F480E38C0F0E94B600CF910895CF939E
:1001B000DF939091AF069923D1F0D62FC82F88E214
:1001C0000E94B6008BE2D11101C08DE20E94B60000
:1001D0008C2F8F700E94C9008AE30E94B6008C2F7A
:1001E00082958F700E94C90089E20E94B600DF915B
:1001F000CF910895CF93DF93C82FD62F0E94D700B9
:10020000C0FF21C0449AC1FF20C0A29AC2FF1FC0F4
:10021000409AC3FF1EC0459AC4FF1DC0419AC5FF46
:100220001CC0429AC6FF1BC0479ADD23D1F0439AF7
:100230005F9A85E0982F9A95F1F75F988A95F1F784
:10024000DF91CF9108954498DECFA298DFCF4098F8
:10025000E0CF4598E1CF4198E2CF4298E3CF47986D
:10026000E4CF4398E5CFCF93DF93C82F8F7D8154A0
:10027000990BD0E04A9718F4DC2FD072CF7DCD30A7
:1002800089F080EE8C0F803450F48C2F0E94B600E1
:10029000EC2FF0E0EA5CFC4FC081CD3749F4DF91F0
:1002A000CF9108958DE00E94B600D091F006CAE784
:1002B000DD2321F061E08CE30E94FA0061E08C2FE5
:1002C0000E94FA0080E09AEF0197F1F760E08C2F2E
:1002D0000E94FA00DD2321F060E08CE30E94FA0026
:1002E00080E09AEF0197F1F7DACFFF920F931F9317
:1002F000CF93DF93EC011091F106812F8170F82EDE
:1003000010FF04C060E08CE30E94FA00012F02702D
:1003100011FF04C060E08CE70E94FA00899181110E
:1003200011C0FF2021F061E08CE30E94FA0000235D
:1003300021F061E08CE70E94FA00CDB7DEB7E5E07E
:100340000C94EC060E943301E9CF2091F0062111B4
:1003500007C02091F106237009F0CB010E947501BE
:100360000895FF920F931F93CF93DF93082FC62F0B
:10037000F42ED22F809100028D3739F060E08F7714
:100380000E94FA008DE7809300021091F106183068
:1003900009F450C0E0F48FEF810F833030F1D111B8
:1003A00005C060E0802F8F770E94FA0007FF06C02B
:1003B0006D2F8CE30E94FA0000930002DD2329F0E8
:1003C00061E0802F8F770E94FA00C02F03C0CDE735
:1003D0001C3028F7CF77137080E009F080E88C2B71
:1003E000CDB7DEB7E5E00C94EC060C2F0F77D111FA
:1003F00004C060E0802F0E94FA00C7FF14C010FF05
:1004000005C061E06D278CE30E94FA0011FF05C072
:1004100061E06D278CE70E94FA00C093000280E043
:100420009AEF0197F1F7DD23A9F261E0802F0E9496
:10043000FA00D0CFD11105C060E08F2D8F770E94D8
:10044000FA00F7FE06C06D2F8CE30E94FA00F092CE
:100450000002DD2329F061E08F2D8F770E94FA00E2
:10046000CF2DB8CFCF93C62F803261F120F48E31DB
:10047000B9F0CF910895883289F18133D1F781E0C5
:1004800092E00E94BD008091F1068E7F8C2B8093BC
:10049000F1062C2F4CE36CE38CE30E94B101E9CF11
:1004A00088E092E00E94BD008091F1068D7F90E08F
:1004B000C11192E0892B8093F1062C2F4CE76CE759
:1004C0008CE7EBCF8FE092E00E94BD008091F106B7
:1004D000877F98E0C1110CC090E00AC083E192E0F0
:1004E0000E94BD008091F1068B7F94E0CC23A1F3A4
:1004F000892B8093F106BDCFB0E0A0E0E2E8F2E006
:100500000C94CC06182FC82FCF77D82FD095DD1F8D
:10051000DD27DD1FCF33A9F48091F1068C708C307C
:1005200081F417FD02C0CDE756C088E192E00E9439
:10053000750181E09091F006911180E08093F006C2
:10054000F2CF6D2F8C2F0E943202F090F006F11046
:1005500013C10091F106802F837020E809F420E098
:100560002C2B6091B9047091BA0490E080E086175A
:100570009707B8F1CF3109F4D2C008F020C1CF30CD
:1005800009F4E5C008F00AC1CC2309F4B6C0C730AD
:1005900009F498C0E5E9F3E090E080E021812C13B4
:1005A0008AC025E0289F8001299F100D11240B5639
:1005B0001C4FF80180810E94B6002D2FF801448164
:1005C000638182810E94B101C82FFF2021F06D2F2D
:1005D0008F770E94D7008C2FCDB7DEB7E9E00C945F
:1005E000E806FC01E554FB4FE1803081231709F454
:1005F000B9C04E2D50E04E5F5F4F840F951FB7CFAF
:1006000091919D938F5F8E11FBCF8BE217FD8DE251
:100610000E94B60088E292E00E94BD0017FD83CFE1
:10062000802F8170B82E00FF04C060E08CE30E9430
:10063000FA00102F127001FF04C060E08CE70E94E6
:10064000FA0081E08093AF06FE1010C01092AF0652
:10065000BB2021F061E08CE30E94FA00112309F431
:1006600062CF61E08CE70E94FA005DCFF601C19194
:100670006F01DC2FDF77DD37E1F0C7FF04C061E0F9
:100680008CE30E94FA0061E08D2F0E94FA0080E066
:100690009AEF0197F1F760E08D2F0E94FA00C7FFF3
:1006A00004C060E08CE30E94FA0080E09AEF0197BA
:1006B000F1F7F394C9CF019635968133910509F08E
:1006C0006DCF31CF85E392E00E94BD008AE72D2FE8
:1006D0004DE76AE795C081E492E00E94BD002D2FAE
:1006E0004DE762E482E48CC086E492E00E94BD00A3
:1006F0002D2F4DE761E481E483C08BE492E00E94FA
:10070000BD002D2F41E76DE781E77AC085E592E0D6
:100710000E94BD002D2F4DE76DE58DE571C08EE582
:1007200092E00E94BD0061E672E085E692E017FD6E
:10073000FACE0E94A501F7CE80E792E00E94BD00AC
:1007400063E772E087E792E017FFF3CFECCE8BE729
:1007500092E00E94BD006EE772E082E892E017FF2F
:10076000E8CFE1CEFC01E354FB4F80EBC82E86E0DE
:10077000D82ED60180E047CFCF3189F200F5CF30B7
:1007800031F360F4CC2309F4B8CFC73009F002CFBD
:1007900085E392E00E94BD008AEF99CFC63109F44B
:1007A000A3CFC73109F0F6CE86E892E00E94BD00E3
:1007B00017FDB9CE69E872E08DE892E0BACFC03398
:1007C00009F4A4CF78F4C73209F4B6CFCF3209F0D8
:1007D000E1CE8CE392E00E94BD002D2F4DE761E653
:1007E00081E60EC0C73309F476CFCF3309F0D2CEFD
:1007F0008EE292E00E94BD002D2F4DE762E682E678
:100800000E94B101C82FE7CE86E08093C20010920B
:10081000C50081E28093C40092E09093C00088E11B
:100820008093C10094BD85E085BD2FE027BD9093E6
:100830006E009093A3049FEF9093A20424EF31E005
:1008400030939F0420939E0420919E0430919F0436
:1008500030939D0420939C0420E430E03093A10465
:100860002093A00492B95F983E9A3C9A9A9A389A3B
:100870003D9A399A3A9A3F9A3B9A579A469A8A955C
:10088000F1F7469878949091B5048091B404981744
:10089000D1F39091B5048091B4049817D1F3E0910D
:1008A000B404EF5FEF70E093B404F0E0EC55FB4F5D
:1008B00010818091F006882309F481C1C12FCF7780
:1008C000612F6095661F6627661F8C2F0E9432027B
:1008D00017FF36C0D091F1068D2F8C708C3049F403
:1008E000CF3339F481E992E00E9475011092F0064D
:1008F000CACFE091B804EA3018F5F0E08827EC5749
:10090000FB4F8F4F0C94BB068E043505A004570592
:1009100073057E05870590059905A205D37080E8CB
:1009200009F480E08C2B8093B704CC3109F497C094
:1009300008F049C0CF3009F476C0C73109F481C04E
:100940008091B804823009F09ECF17FD24C18091B8
:10095000F106837009F437C1C73009F034C1109231
:10096000B8044091B7046091B9047091BA0430E0C2
:1009700020E02617370708F4EBC09091B604A09149
:10098000B904B091BA04FD0132969F01290F311DBF
:10099000253F314098F4A554BB4F4C9311969C933E
:1009A000A0EBB6E0E554FB4F80E09F012B5B3440A9
:1009B0009813EDC03093BA042093B9048EE493E009
:1009C0000E94750160CFC73201F1CC32B1F0CF3156
:1009D00009F0B6CF82E08093B8041092B60485EB9C
:1009E00092E00E94750182E3D11101C081E30E946F
:1009F00033018AE30E943301A3CF83E08093B804DC
:100A000082EA92E00E9475019BCF82E08093B80455
:100A10001092B60485EB92E00E94750184E3D11137
:100A2000E6CF83E3E4CF82E08093B8041092B6046B
:100A300085EB92E00E94750186E3D111D8CF85E362
:100A4000D6CF82E08093B8041092B60485EB92E092
:100A50000E94750188E3D111CACF87E3C8CF81E036
:100A60008093B8048EED92E0CDCFC03219F048F4F7
:100A7000CE3159F48EEE92E00E9475011092B804C6
:100A80005FCFC832B9F3C133A9F3D37080E809F45A
:100A900080E08C2B8093B70482E08093B80410929E
:100AA000B604812F0E947C0287EF92E0ABCFC03169
:100AB00061F0C833A9F48FE093E00E94750184E0EF
:100AC0008093B8041092B6043BCF85E193E00E9476
:100AD000750184E08093B80481E08093B60430CF40
:100AE0008BE193E0C9CF8C2F0E947C0285E293E0DA
:100AF0000E94750185E08093B80422CF8C2F0E945C
:100B00007C028CE293E00E94750186E0F4CF8C2F8A
:100B10000E947C0283E393E00E94750187E0EBCFA3
:100B20008C2F0E947C028BE393E00E94750188E089
:100B3000E2CF8C2F0E947C0284E493E00E94750136
:100B400089E0D9CF8C2F0E947C028DE493E094CF72
:100B5000F901E554FB4F8181908149130BC090E06E
:100B60009F012B5B344089130AC03093BA04209351
:100B7000B90403CF90E00296280F391FFACEDF01A7
:100B8000A80FB11D12962C9121939F5FE9CF2D9153
:100B900021938F5F0ACFC03209F475CE50F4CE3165
:100BA00009F471CE812F0E947C0260E00E94D70080
:100BB0006ACEC83209F467CEC133A1F764CE812F63
:100BC0000E947C0260CEC03209F45DCEA8F4CE3122
:100BD00009F459CE812F0E947C02C82F61E00E9447
:100BE000D700E091B60481E08E0F8093B604F0E068
:100BF000E055F94FC08347CEC83209F444CEC13323
:100C000049F741CE1F920F920FB60F9211240BB6E7
:100C10000F92CF92DF92EF92FF920F931F932F9339
:100C20003F934F935F936F937F938F939F93AF9374
:100C3000BF93CF93DF93EF93FF938091A304813011
:100C400009F47DC08091A2048F3FD1F020919C04D3
:100C500030919D042150310930939D0420939C04D0
:100C600020919C0430919D04232B51F42091A004E9
:100C70003091A10430939D0420939C040E94AB000A
:100C800000919B04D0919A048D2F90E09C012657EF
:100C90003B4F7901F901C0810C1781F0DD2EDD0C8D
:100CA000DD0CDD0C102F10951C23CD2C111136C03E
:100CB000C095C023C1113BC0F701008381E090E0E3
:100CC0000D2E01C0880F0A94EAF780930A018095DF
:100CD00080930B01DF5FD83009F4D0E0D0939A0401
:100CE00081E08093A304FF91EF91DF91CF91BF91B9
:100CF000AF919F918F917F916F915F914F913F91B4
:100D00002F911F910F91FF90EF90DF90CF900F9058
:100D10000BBE0F900FBE0F901F90189510FF04C0D0
:100D20008C2D80680E94AB001695C394BFCFC0FF86
:100D300003C08D2D0E94AB00C695D394BBCF80B16C
:100D4000809580939B0482E0CCCFF999FECF92BD31
:100D500081BDF89A992780B50895262FF999FECF7D
:100D60001FBA92BD81BD20BD0FB6F894FA9AF99AC8
:100D70000FBE01960895EE0FFF1F881F8BBF0790CF
:100D8000F691E02D19942F923F924F925F926F92BD
:100D90007F928F929F92AF92BF92CF92DF92EF920B
:100DA000FF920F931F93CF93DF93CDB7DEB7CA1B8C
:100DB000DB0B0FB6F894DEBF0FBECDBF19942A88A7
:100DC000398848885F846E847D848C849B84AA845F
:100DD000B984C884DF80EE80FD800C811B81AA81EC
:100DE000B981CE0FD11D0FB6F894DEBF0FBECDBFB7
:080DF000ED010895F894FFCF16
:100DF8007D4C534849465400525348494654004391
:100E0800424D004354524C00636F6E666967206D13
:100E18006F6465206F6E0A006D6163726F004445F0
:100E28004C4554450052455455524E004353525474
:100E3800004353444E00484F4D45004C45465441ED
:100E480052524F570052554E2F53544F500046316F
:100E58000066320D006469726563746F72790D0003
:100E680046330066340D0066330D0046350066369D
:100E78000D0066350D0046370066380D0066370DE3
:100E880000636F6E666967206D6F6465206F6666C4
:100E98000A006D6170206A6F79737469636B2E2024
:100EA8006A6F7923006D61702066756E6374696F6F
:100EB8006E206B6579202853482D52455455524E63
:100EC80020746F2066696E697368292023006D613C
:100ED80070207768696368206B65793F3A00696EAE
:100EE80076616C69640D00202853482D524554558D
:100EF800524E20746F2066696E697368293A003112
:100F08002E75703A00322E75703A002E494E5641B1
:100F18004C49440D002E646F776E3A002E6C65665E
:100F2800743A002E72696768743A002E66697265B1
:100F380020313A002E6669726520323A002E6D61C2
:100F4800707065640D001D31322122110112515259
:100F5800696B0B6C4D644C4A4B6A4849684344635F
:100F6800595A0D6D5C5B2C381A2A28232918190444
:100F78000809580A1B535433243913032B343B14E0
:100F88003A2D7D1C7320181D1D7D2A06692CF12B16
:100F98003D6B2D812C350B8D7D2D156C1C822E1DE6
:100FA8004DDC7D2F3664DB7D30144C4CBD31384A26
:100FB800B17D32104BB27D33396AA17D341148A21C
:100FC8007D353A49917D361268817D373B43927D64
:100FD800381344D17D393C63D23D3A2559AD7D3B28
:100FE8002E5A9C7D3D266D7D7D400D2C59A24129B0
:100FF8003838CC421B1A1ADB431A2A2A8D442A286D
:10100800288B45092323CA46222929DA472B181891
:101018009148231919C849040404B24A2C0808C97C
:101028004B240909B14C2D5858E84D1C0A0A924E18
:10103800341B1BE94F0C5353E350055454E4510837
:101048003333EB52022424CB53213939CD540A13BC
:1010580013A1550B0303C456332B2BDC570134342F
:10106800EA58323B3BED59031414C35A193A3AEC87
:0A1078005C3E0252D15E0E73737DE0
:00000001FF
