:100000000C9486000C94A7000C94A7000C94A700F5
:100010000C94A7000C94A7000C94A7000C94A700C4
:100020000C94A7000C94A7000C94A7000C94A700B4
:100030000C94A7000C94A7000C94A7000C94A700A4
:100040000C94A7000C94A7000C94A7000C94A70094
:100050000C94A7000C94AC050C94A7000C94A7007A
:100060000C94A7000C94A7000C94A7000C94A70074
:100070000C94A7000C94A7000C94A7000C94A70064
:100080000C94A7000C94A7000C94A7000C94A70054
:100090000C94A7000C94A7000C94A7000C94A70044
:1000A0000C94A7000C94A7000C94A7000C94A70034
:1000B0000C94A7000C94A7000C94A7000C94A70024
:1000C0000C94A7000C94A7000C94A7000C94A70014
:1000D0000C94A7000C94A7000C94A7000C94A70004
:1000E0000C94A7000C9481020C9463040C944C05AE
:1000F0000C9443050C941D050C94FD040C943105DF
:100100000C9428050C9470040C943A0511241FBE1D
:10011000CFEFD1E2DEBFCDBF00E00CBF14E0A0E026
:10012000B2E0ECE4FDE000E00BBF02C007900D92EE
:10013000A435B107D9F726E0A4E5B4E001C01D92CB
:10014000AC3BB207E1F70E94DA030C94A4060C94CE
:100150000000E0917F04EF5FEF70E0937F04F0E038
:10016000E259FB4F808308959091C00095FFFCCF2A
:100170008093C6000895CF93DF93EC01899181119C
:1001800003C0DF91CF9108950E94B400F7CFCF93C1
:10019000C82F80E30E94B40087E5CA3008F480E3EA
:1001A0008C0F0E94B400CF910895CF93DF9390916C
:1001B00079069923D1F0D62FC82F88E20E94B40087
:1001C0008BE2D11101C08DE20E94B4008C2F8F70A0
:1001D0000E94C7008AE30E94B4008C2F82958F7022
:1001E0000E94C70089E20E94B400DF91CF91089578
:1001F000CF93DF93C82FD62F0E94D500C0FF21C018
:10020000449AC1FF20C0A29AC2FF1FC0409AC3FFF8
:100210001EC0459AC4FF1DC0419AC5FF1CC0429A2A
:10022000C6FF1BC0479ADD23D1F0439A5F9A85E051
:10023000982F9A95F1F75F988A95F1F7DF91CF9112
:1002400008954498DECFA298DFCF4098E0CF45983C
:10025000E1CF4198E2CF4298E3CF4798E4CF43986B
:10026000E5CFCF93DF93C82F8F7D8154990BD0E0DA
:100270004A9720F4D0E8C5FDD0E0CF7DCD3089F09D
:1002800080EE8C0F803450F48C2F0E94B400EC2F41
:10029000F0E0E150FD4FC081CD3749F4DF91CF91BF
:1002A00008958DE00E94B400D091BA06CAE7DD231C
:1002B00021F061E08CE30E94F80061E08C2F0E9445
:1002C000F80080E09AEF0197F1F760E08C2F0E9430
:1002D000F800DD2321F060E08CE30E94F80080E06C
:1002E0009AEF0197F1F7DACFFF920F931F93CF9315
:1002F000DF93EC011091BB06812F8170F82E10FF67
:1003000004C060E08CE30E94F800012F027011FF2E
:1003100004C060E08CE70E94F8008991811111C04F
:10032000FF2021F061E08CE30E94F800002321F01F
:1003300061E08CE70E94F800CDB7DEB7E5E00C94F1
:1003400096060E943101E9CF2091BA06211107C01B
:100350002091BB06237009F0CB010E94740108951F
:10036000FF920F931F93CF93DF93082FC62FF42E86
:10037000D22F809100028D3739F060E08F770E9494
:10038000F8008DE7809300021091BB06183009F445
:1003900050C0E0F48FEF810F833030F1D11105C0F0
:1003A00060E0802F8F770E94F80007FF06C06D2F56
:1003B0008CE30E94F80000930002DD2329F061E045
:1003C000802F8F770E94F800C02F03C0CDE71C302C
:1003D00028F7CF77137080E009F080E88C2BCDB739
:1003E000DEB7E5E00C9496060C2F0F77D11104C010
:1003F00060E0802F0E94F800C7FF14C010FF05C006
:1004000061E06D278CE30E94F80011FF05C061E0F8
:100410006D278CE70E94F800C093000280E09AEFFD
:100420000197F1F7DD23A9F261E0802F0E94F80027
:10043000D0CFD11105C060E08F2D8F770E94F800DA
:10044000F7FE06C06D2F8CE30E94F800F0920002C8
:10045000DD2329F061E08F2D8F770E94F800CF2DEA
:10046000B8CFCF93C62F803261F120F48E31B9F02E
:10047000CF910895883289F18133D1F781E092E0FC
:100480000E94BB008091BB068E7F8C2B8093BB06A5
:100490002C2F4CE36CE38CE30E94B001E9CF88E0A1
:1004A00092E00E94BB008091BB068D7F90E0C1115D
:1004B00092E0892B8093BB062C2F4CE76CE78CE7EE
:1004C000EBCF8FE092E00E94BB008091BB06877F5C
:1004D00098E0C1110CC090E00AC083E192E00E9454
:1004E000BB008091BB068B7F94E0CC23A1F3892BCA
:1004F0008093BB06BDCFB0E0A0E0E1E8F2E00C9451
:100500007606182FC82FCF77D82FD095DD1FDD277F
:10051000DD1FCF33A9F48091BB068C708C3081F441
:1005200017FD02C08DE74BC088E192E00E94740184
:1005300081E09091BA06911180E08093BA06F2CFE3
:100540006D2F8C2F0E943102D090BB068D2D8370B1
:1005500020E809F420E02C2B60918304709184043E
:1005600090E080E08617970778F1CF3109F4F5C065
:1005700008F09EC0CF3009F408C108F088C0CC2331
:1005800009F4D9C0C73009F4BBC0EEE5F3E090E050
:1005900080E021812C13ADC025E0289F8001299F98
:1005A000100D1124025A1C4FF80180810E94B400E2
:1005B0002D2FF8014481638182810E94B001CDB763
:1005C000DEB7E9E00C949206FC01EB57FB4F01818A
:1005D0003081231709F4E4C0402F50E04E5F5F4F95
:1005E000840F951FBFCF91919D938F5F8013FBCF99
:1005F00017FD98CF8D2D8170B82ED0FE04C060E01D
:100600008CE30E94F800ED2DE270CE2ED1FE04C0E6
:1006100060E08CE70E94F80081E080937906C0E0FA
:10062000C01310C010927906BB2021F061E08CE36A
:100630000E94F800CC2009F475CF61E08CE70E949D
:10064000F80070CFF701D1917F011D2F1F771D3763
:10065000E1F0D7FF04C061E08CE30E94F80061E0A4
:10066000812F0E94F80080E09AEF0197F1F760E097
:10067000812F0E94F800D7FF04C060E08CE30E9445
:10068000F80080E09AEF0197F1F7CF5FC9CFC6314C
:1006900009F448C0C73109F078CF80E892E00E94A1
:1006A000BB0017FD3FCF63E872E087E892E05FC0D0
:1006B000C03309F449C078F4C73209F45BC0CF32C3
:1006C00009F063CF86E392E00E94BB002D2F4DE737
:1006D00061E681E672CFC733E1F0CF3309F055CF41
:1006E00088E292E00E94BB002D2F4DE762E682E691
:1006F00064CF019635968133910509F04ACF12CF28
:100700008FE292E00E94BB002D2F4DE76AE78AE757
:1007100054CF8BE392E00E94BB002D2F4DE762E4A3
:1007200082E44BCF80E492E00E94BB002D2F4DE786
:1007300061E481E442CF85E492E00E94BB002D2F6A
:1007400041E76DE781E739CF8FE492E00E94BB007B
:100750002D2F4DE76DE58DE530CF88E592E00E94C5
:10076000BB006BE572E08FE592E017FDDBCE0E94E7
:10077000A401D8CE8AE692E00E94BB006DE672E04A
:1007800081E792E017FFF3CFCDCE85E792E00E949C
:10079000BB0068E772E08CE792E017FFE8CFC2CEBB
:1007A000FC01E957FB4F8AE7E82E86E0F82ED701D7
:1007B00080E01CCF86E08093C2001092C50081E2E9
:1007C0008093C40092E09093C00088E18093C100C0
:1007D00094BD85E085BD2FE027BD90936E0090937A
:1007E0006D049FEF90936C0424EF31E03093690423
:1007F0002093680420916804309169043093670461
:100800002093660420E430E030936B0420936A0464
:1008100092B95F983E9A3C9A9A9A389A3D9A399A38
:100820003A9A3F9A3B9A579A469A8A95F1F7469890
:10083000789490917F0480917E049817D1F39091E1
:100840007F0480917E049817D1F3E0917E04EF5FDE
:10085000EF70E0937E04F0E0E259FB4F108180914D
:10086000BA06882309F455C1C12FCF77612F60954F
:10087000661F6627661F8C2F0E94310217FF30C04B
:10088000D091BB068D2F8C708C3049F4CF3339F466
:100890008BE892E00E9474011092BA06CACFE091F0
:1008A0008204E930E8F4F0E08827E65AFB4F8F4FE6
:1008B0000C94650663047004FD041D0528053105CC
:1008C0003A0543054C05C0938104CF3109F458C063
:1008D00008F049C0CF3009F474C0C73109F47FC0B3
:1008E00080918204813009F0A4CF17FDFEC0809171
:1008F000BB06837009F411C1C73009F00EC1109214
:10090000820440918104609183047091840430E0FA
:1009100020E02617370708F4C5C090918004A09105
:100920008304B0918404FD0132969F01290F311D8B
:10093000253F314098F4AB57BB4F4C9311969C9395
:10094000AAE7B6E0EB57FB4F80E09F012558344003
:100950009813C7C0309384042093830487E193E005
:100960000E94740166CFC732F1F0CC3209F0B8CFE3
:1009700082E0809382048CE992E00E947401B0CFFF
:1009800081E080938204109280048FEA92E00E94BA
:100990007401D37082E309F481E30E9431018AE398
:1009A0000E9431019DCF81E08093820410928004E7
:1009B0008FEA92E00E947401D37084E371F783E3BD
:1009C000ECCF81E080938204109280048FEA92E061
:1009D0000E947401D37086E301F785E3DECF81E0E6
:1009E00080938204109280048FEA92E00E94740146
:1009F000D37088E391F687E3D0CFC03161F0C8337C
:100A0000A9F488ED92E00E94740183E0809382044F
:100A10001092800465CF8EED92E00E94740183E015
:100A20008093820481E0809380045ACF84EE92E028
:100A30000E9474011092820453CF8C2F0E947B027B
:100A40008EEE92E00E94740184E08093820448CF8D
:100A50008C2F0E947B0285EF92E00E94740185E05A
:100A6000F4CF8C2F0E947B028CEF92E00E947401E5
:100A700086E0EBCF8C2F0E947B0284E093E00E9403
:100A8000740187E0E2CF8C2F0E947B028DE093E01F
:100A90000E94740188E0D9CF8C2F0E947B0286E1EE
:100AA00093E0C6CFF901EB57FB4F81819081491349
:100AB0000BC090E09F012558344089130AC0309341
:100AC00084042093830429CF90E00296280F391FD5
:100AD00020CFDF01A80FB11D12962C9121939F5FAB
:100AE000E9CF2D9121938F5F30CFC03209F4A1CE91
:100AF00050F4CE3109F49DCE812F0E947B0260E03C
:100B00000E94D50096CEC83209F493CEC133A1F726
:100B100090CE812F0E947B028CCEC03209F489CE08
:100B2000A8F4CE3109F485CE812F0E947B02C82F14
:100B300061E00E94D500E091800481E08E0F8093F7
:100B40008004F0E0E658F94FC08373CEC83209F450
:100B500070CEC13349F76DCE1F920F920FB60F9230
:100B600011240BB60F92CF92DF92EF92FF920F9368
:100B70001F932F933F934F935F936F937F938F9325
:100B80009F93AF93BF93CF93DF93EF93FF938091A6
:100B90006D04813009F47DC080916C048F3FD1F0E9
:100BA0002091660430916704215031093093670425
:100BB000209366042091660430916704232B51F43E
:100BC00020916A0430916B0430936704209366048B
:100BD0000E94A90000916504D09164048D2F90E0DB
:100BE0009C012C5A3B4F7901F901C0810C1781F00F
:100BF000DD2EDD0CDD0CDD0C102F10951C23CD2C13
:100C0000111136C0C095C023C1113BC0F70100834C
:100C100081E090E00D2E01C0880F0A94EAF78093DE
:100C20000A01809580930B01DF5FD83009F4D0E092
:100C3000D093640481E080936D04FF91EF91DF9184
:100C4000CF91BF91AF919F918F917F916F915F9164
:100C50004F913F912F911F910F91FF90EF90DF9057
:100C6000CF900F900BBE0F900FBE0F901F90189556
:100C700010FF04C08C2D80680E94A9001695C394B3
:100C8000BFCFC0FF03C08D2D0E94A900C695D3948D
:100C9000BBCF80B180958093650482E0CCCFF99979
:100CA000FECF92BD81BDF89A992780B50895262F71
:100CB000F999FECF1FBA92BD81BD20BD0FB6F89441
:100CC000FA9AF99A0FBE01960895EE0FFF1F881F3A
:100CD0008BBF0790F691E02D19942F923F924F927F
:100CE0005F926F927F928F929F92AF92BF92CF92BC
:100CF000DF92EF92FF920F931F93CF93DF93CDB7C5
:100D0000DEB7CA1BDB0B0FB6F894DEBF0FBECDBF3C
:100D100019942A88398848885F846E847D848C84FD
:100D20009B84AA84B984C884DF80EE80FD800C8116
:100D30001B81AA81B981CE0FD11D0FB6F894DEBFF9
:0C0D40000FBECDBFED010895F894FFCF69
:100D4C007D4C53484946540052534849465400433D
:100D5C00424D004354524C00636F6E666967206DC0
:100D6C006F6465206F6E0A0044454C455445005233
:100D7C00455455524E0043535254004353444E0075
:100D8C00484F4D45004C4546544152524F57005226
:100D9C00554E2F53544F500046310066320D0064AF
:100DAC0069726563746F72790D0046330066340D99
:100DBC000066330D0046350066360D0066350D00B5
:100DCC0046370066380D0066370D00636F6E666936
:100DDC0067206D6F6465206F66660A006D61702018
:100DEC006A6F79737469636B2E206A6F7923006D57
:100DFC0061702066756E6374696F6E206B65792007
:100E0C002853482D52455455524E20746F20666914
:100E1C006E69736829202300312E75703A00322ECA
:100E2C0075703A002E494E56414C49440D002E64C3
:100E3C006F776E3A002E6C6566743A002E72696795
:100E4C0068743A002E6669726520313A002E666924
:100E5C00726520323A002E6D61707065640D001D54
:100E6C00313221221101125152696B0B6C4D644CC1
:100E7C004A4B6A484968434463595A0D6D5C5B2C74
:100E8C00381A2A2823291819040809580A1B5354FC
:100E9C0033243913032B343B143A2D7D1C73201847
:100EAC001D1D7D2A06692CF12B3D6B2D812C350BDC
:100EBC008D7D2D156C1C822E1D4DDC7D2F3664DB3B
:100ECC007D30144C4CBD31384AB17D32104BB27D63
:100EDC0033396AA17D341148A27D353A49917D366A
:100EEC001268817D373B43927D381344D17D393C68
:100EFC0063D23D3A2559AD7D3B2E5A9C7D3D266DE6
:100F0C007D7D400D2C59A241293838CC421B1A1A30
:100F1C00DB431A2A2A8D442A28288B45092323CA05
:100F2C0046222929DA472B18189148231919C84940
:100F3C00040404B24A2C0808C94B240909B14C2DED
:100F4C005858E84D1C0A0A924E341B1BE94F0C539F
:100F5C0053E350055454E451083333EB5202242428
:100F6C00CB53213939CD540A1313A1550B0303C4A8
:100F7C0056332B2BDC57013434EA58323B3BED59BA
:100F8C00031414C35A193A3AEC5C3E0252D15E0E69
:040F9C0073737D00EE
:00000001FF
